Component: ARM Compiler 5.06 update 4 (build 422) Tool: armlink [4d35d2]

==============================================================================

Section Cross References

    system_stm32f10x.o(.text) refers to stm32f10x_rcc.o(.text) for RCC_DeInit
    system_stm32f10x.o(.text) refers to stm32f10x_flash.o(.text) for FLASH_PrefetchBufferCmd
    system_stm32f10x.o(.text) refers to system_stm32f10x.o(.data) for SystemCoreClock
    led.o(.text) refers to stm32f10x_rcc.o(.text) for RCC_APB2PeriphClockCmd
    led.o(.text) refers to stm32f10x_gpio.o(.text) for GPIO_Init
    timer.o(.text) refers to stm32f10x_rcc.o(.text) for RCC_APB2PeriphClockCmd
    timer.o(.text) refers to stm32f10x_tim.o(.text) for TIM_TimeBaseInit
    timer.o(.text) refers to misc.o(.text) for NVIC_Init
    exti.o(.text) refers to stm32f10x_rcc.o(.text) for RCC_APB2PeriphClockCmd
    exti.o(.text) refers to stm32f10x_gpio.o(.text) for GPIO_Init
    exti.o(.text) refers to stm32f10x_exti.o(.text) for EXTI_Init
    exti.o(.text) refers to misc.o(.text) for NVIC_Init
    exti.o(.text) refers to exti.o(.data) for key_flag
    usart.o(.text) refers (Special) to use_no_semi_2.o(.text) for __use_no_semihosting
    usart.o(.text) refers to _printf_percent.o(.ARM.Collect$$_printf_percent$$00000000) for _printf_percent
    usart.o(.text) refers to _printf_x.o(.ARM.Collect$$_printf_percent$$0000000C) for _printf_x
    usart.o(.text) refers to _printf_hex_int.o(.text) for _printf_longlong_hex
    usart.o(.text) refers to _printf_d.o(.ARM.Collect$$_printf_percent$$00000009) for _printf_d
==============================================================================

Removing Unused input sections from the image.

    Removing timer.o(.text), (304 bytes).
    Removing oled.o(.text), (1188 bytes).
    Removing oled.o(.constdata), (2072 bytes).
    Removing oled.o(.data), (896 bytes).
    Removing iic.o(.text), (624 bytes).
    Removing gpio_iic.o(.text), (264 bytes).
    Removing mpu6050.o(.text), (888 bytes).
    Removing mpuiic.o(.text), (608 bytes).
    Removing core_cm3.o(.emb_text), (32 bytes).
    Removing stm32f10x_bkp.o(.text), (196 bytes).
    Removing stm32f10x_can.o(.text), (2544 bytes).
    Removing stm32f10x_cec.o(.text), (288 bytes).
    Removing stm32f10x_crc.o(.text), (72 bytes).
    Removing stm32f10x_dac.o(.text), (396 bytes).
    Removing stm32f10x_dbgmcu.o(.text), (48 bytes).
    Removing stm32f10x_dma.o(.text), (596 bytes).
    Removing stm32f10x_fsmc.o(.text), (1548 bytes).
    Removing stm32f10x_i2c.o(.text), (1028 bytes).
==============================================================================

Image Symbol Table

    Local Symbols

    Symbol Name                              Value     Ov Type        Size  Object(Section)

    ../clib/angel/boardlib.s                 0x00000000   Number         0  boardinit1.o ABSOLUTE
    ../clib/angel/boardlib.s                 0x00000000   Number         0  boardinit2.o ABSOLUTE
    ../clib/angel/boardlib.s                 0x00000000   Number         0  boardinit3.o ABSOLUTE
    ../clib/angel/boardlib.s                 0x00000000   Number         0  boardshut.o ABSOLUTE
    ../clib/angel/handlers.s                 0x00000000   Number         0  __scatter_zi.o ABSOLUTE
    ../clib/angel/handlers.s                 0x00000000   Number         0  __scatter_copy.o ABSOLUTE
    ../clib/angel/kernel.s                   0x00000000   Number         0  rtexit2.o ABSOLUTE
    ../clib/angel/kernel.s                   0x00000000   Number         0  __rtentry.o ABSOLUTE
    ../clib/angel/kernel.s                   0x00000000   Number         0  __rtentry4.o ABSOLUTE
    ../clib/angel/kernel.s                   0x00000000   Number         0  rtexit.o ABSOLUTE
    ../clib/angel/kernel.s                   0x00000000   Number         0  __rtentry2.o ABSOLUTE
    ../clib/angel/rt.s                       0x00000000   Number         0  rt_raise.o ABSOLUTE
    ../clib/angel/scatter.s                  0x00000000   Number         0  __scatter.o ABSOLUTE
    ../clib/angel/startup.s                  0x00000000   Number         0  __main.o ABSOLUTE
    ../clib/angel/sys.s                      0x00000000   Number         0  use_no_semi.o ABSOLUTE
    ../clib/angel/sys.s                      0x00000000   Number         0  sys_stackheap_outer.o ABSOLUTE
    ../clib/angel/sys.s                      0x00000000   Number         0  libspace.o ABSOLUTE
    ../clib/angel/sys.s                      0x00000000   Number         0  indicate_semi.o ABSOLUTE
    ../clib/angel/sys.s                      0x00000000   Number         0  use_no_semi_2.o ABSOLUTE
    ../clib/angel/sysapp.c                   0x00000000   Number         0  sys_wrch.o ABSOLUTE
    ../clib/angel/sysapp.c                   0x00000000   Number         0  sys_command.o ABSOLUTE
    ../clib/armsys.c                         0x00000000   Number         0  no_argv.o ABSOLUTE
    ../clib/armsys.c                         0x00000000   Number         0  _get_argv_nomalloc.o ABSOLUTE
    ../clib/armsys.c                         0x00000000   Number         0  argv_veneer.o ABSOLUTE
    ../clib/armsys.c                         0x00000000   Number         0  argv_veneer.o ABSOLUTE
    ../clib/heapalloc.c                      0x00000000   Number         0  hrguard.o ABSOLUTE
    ../clib/heapaux.c                        0x00000000   Number         0  heapauxi.o ABSOLUTE
    ../clib/libinit.s                        0x00000000   Number         0  libshutdown.o ABSOLUTE
    ../clib/libinit.s                        0x00000000   Number         0  libinit2.o ABSOLUTE
    ../clib/libinit.s                        0x00000000   Number         0  libshutdown2.o ABSOLUTE
    ../clib/libinit.s                        0x00000000   Number         0  libinit.o ABSOLUTE
    ../clib/printf.c                         0x00000000   Number         0  _printf_hex_ll_ptr.o ABSOLUTE
    ../clib/printf.c                         0x00000000   Number         0  _printf_hex_int_ptr.o ABSOLUTE
    ../clib/printf.c                         0x00000000   Number         0  _printf_hex_ptr.o ABSOLUTE
    ../clib/printf.c                         0x00000000   Number         0  _printf_hex_int_ll.o ABSOLUTE
    ../clib/printf.c                         0x00000000   Number         0  _printf_hex_int.o ABSOLUTE
    ../clib/printf.c                         0x00000000   Number         0  _printf_hex_ll.o ABSOLUTE
    ../clib/printf.c                         0x00000000   Number         0  _printf_char_common.o ABSOLUTE
    ../clib/printf.c                         0x00000000   Number         0  _printf_dec.o ABSOLUTE
    ../clib/printf.c                         0x00000000   Number         0  __printf.o ABSOLUTE
    ../clib/printf.c                         0x00000000   Number         0  _printf_intcommon.o ABSOLUTE
    ../clib/printf.c                         0x00000000   Number         0  noretval__2printf.o ABSOLUTE
    ../clib/printf.c                         0x00000000   Number         0  __2printf.o ABSOLUTE
    ../clib/printf.c                         0x00000000   Number         0  _printf_char_file.o ABSOLUTE
    ../clib/printf.c                         0x00000000   Number         0  __printf_flags_ss.o ABSOLUTE
    ../clib/printf.c                         0x00000000   Number         0  __printf_flags_ss_wp.o ABSOLUTE
    ../clib/printf.c                         0x00000000   Number         0  __printf_ss_wp.o ABSOLUTE
    ../clib/printf.c                         0x00000000   Number         0  __printf_flags_wp.o ABSOLUTE
    ../clib/printf.c                         0x00000000   Number         0  __printf_wp.o ABSOLUTE
    ../clib/printf.c                         0x00000000   Number         0  __printf_nopercent.o ABSOLUTE
    ../clib/printf.c                         0x00000000   Number         0  __printf_ss.o ABSOLUTE
    ../clib/printf.c                         0x00000000   Number         0  __printf_flags.o ABSOLUTE
    ../clib/printf.c                         0x00000000   Number         0  _printf_hex_int_ll_ptr.o ABSOLUTE
    ../clib/printf_percent.s                 0x00000000   Number         0  _printf_percent.o ABSOLUTE
    ../clib/printf_percent.s                 0x00000000   Number         0  _printf_d.o ABSOLUTE
    ../clib/printf_percent.s                 0x00000000   Number         0  _printf_x.o ABSOLUTE
    ../clib/printf_percent.s                 0x00000000   Number         0  _printf_percent_end.o ABSOLUTE
    ../clib/signal.c                         0x00000000   Number         0  defsig_segv_inner.o ABSOLUTE
    ../clib/signal.c                         0x00000000   Number         0  defsig_cppl_inner.o ABSOLUTE
    ../clib/signal.c                         0x00000000   Number         0  defsig_pvfn_inner.o ABSOLUTE
    ../clib/signal.c                         0x00000000   Number         0  defsig_stak_inner.o ABSOLUTE
    ../clib/signal.c                         0x00000000   Number         0  defsig_rtred_inner.o ABSOLUTE
    ../clib/signal.c                         0x00000000   Number         0  defsig_fpe_inner.o ABSOLUTE
    ../clib/signal.c                         0x00000000   Number         0  defsig_abrt_inner.o ABSOLUTE
    ../clib/signal.c                         0x00000000   Number         0  __raise.o ABSOLUTE
    ../clib/signal.c                         0x00000000   Number         0  defsig_rtmem_inner.o ABSOLUTE
    ../clib/signal.c                         0x00000000   Number         0  defsig_exit.o ABSOLUTE
    ../clib/signal.c                         0x00000000   Number         0  defsig_rtmem_formal.o ABSOLUTE
    ../clib/signal.c                         0x00000000   Number         0  defsig_rtmem_outer.o ABSOLUTE
    ../clib/signal.c                         0x00000000   Number         0  defsig_general.o ABSOLUTE
    ../clib/signal.c                         0x00000000   Number         0  defsig_other.o ABSOLUTE
    ../clib/signal.s                         0x00000000   Number         0  defsig.o ABSOLUTE
    ../clib/stdio.c                          0x00000000   Number         0  ferror_locked.o ABSOLUTE
    ../clib/stdio.c                          0x00000000   Number         0  ferror.o ABSOLUTE
    ../clib/stdlib.c                         0x00000000   Number         0  exit.o ABSOLUTE
    ../fplib/d2f.s                           0x00000000   Number         0  d2f.o ABSOLUTE
    ../fplib/daddsub.s                       0x00000000   Number         0  daddsub_clz.o ABSOLUTE
    ../fplib/dcmpi.s                         0x00000000   Number         0  dcmpi.o ABSOLUTE
    ../fplib/ddiv.s                          0x00000000   Number         0  ddiv.o ABSOLUTE
    ../fplib/dfix.s                          0x00000000   Number         0  dfix.o ABSOLUTE
    ../fplib/dfixu.s                         0x00000000   Number         0  dfixu.o ABSOLUTE
    ../fplib/dflt.s                          0x00000000   Number         0  dflt_clz.o ABSOLUTE
    ../fplib/dleqf.s                         0x00000000   Number         0  dleqf.o ABSOLUTE
    ../fplib/dmul.s                          0x00000000   Number         0  dmul.o ABSOLUTE
    ../fplib/dnaninf.s                       0x00000000   Number         0  dnaninf.o ABSOLUTE
    ../fplib/dretinf.s                       0x00000000   Number         0  dretinf.o ABSOLUTE
    ../fplib/drleqf.s                        0x00000000   Number         0  drleqf.o ABSOLUTE
    ../fplib/f2d.s                           0x00000000   Number         0  f2d.o ABSOLUTE
    ../fplib/faddsub.s                       0x00000000   Number         0  faddsub_clz.o ABSOLUTE
    ../fplib/ffix.s                          0x00000000   Number         0  ffix.o ABSOLUTE
    ../fplib/fflt.s                          0x00000000   Number         0  fflt_clz.o ABSOLUTE
    ../fplib/fmul.s                          0x00000000   Number         0  fmul.o ABSOLUTE
    ../fplib/fnaninf.s                       0x00000000   Number         0  fnaninf.o ABSOLUTE
    ../fplib/fpinit.s                        0x00000000   Number         0  fpinit.o ABSOLUTE
    ../fplib/fretinf.s                       0x00000000   Number         0  fretinf.o ABSOLUTE
    ../fplib/usenofp.s                       0x00000000   Number         0  usenofp.o ABSOLUTE
    CORE\\core_cm3.c                         0x00000000   Number         0  core_cm3.o ABSOLUTE
    CORE\core_cm3.c                          0x00000000   Number         0  core_cm3.o ABSOLUTE
    CORE\startup_stm32f10x_md.s              0x00000000   Number         0  startup_stm32f10x_md.o ABSOLUTE
    MAIN\delay.c                             0x00000000   Number         0  delay.o ABSOLUTE
    MAIN\main.c                              0x00000000   Number         0  main.o ABSOLUTE
    MAIN\stm32f10x_it.c                      0x00000000   Number         0  stm32f10x_it.o ABSOLUTE
    MAIN\system_stm32f10x.c                  0x00000000   Number         0  system_stm32f10x.o ABSOLUTE
    STM32F10x_FWLib\src\misc.c               0x00000000   Number         0  misc.o ABSOLUTE
    STM32F10x_FWLib\src\stm32f10x_adc.c      0x00000000   Number         0  stm32f10x_adc.o ABSOLUTE
    STM32F10x_FWLib\src\stm32f10x_bkp.c      0x00000000   Number         0  stm32f10x_bkp.o ABSOLUTE
    STM32F10x_FWLib\src\stm32f10x_can.c      0x00000000   Number         0  stm32f10x_can.o ABSOLUTE
    STM32F10x_FWLib\src\stm32f10x_cec.c      0x00000000   Number         0  stm32f10x_cec.o ABSOLUTE
    STM32F10x_FWLib\src\stm32f10x_crc.c      0x00000000   Number         0  stm32f10x_crc.o ABSOLUTE
    STM32F10x_FWLib\src\stm32f10x_dac.c      0x00000000   Number         0  stm32f10x_dac.o ABSOLUTE
    STM32F10x_FWLib\src\stm32f10x_dbgmcu.c   0x00000000   Number         0  stm32f10x_dbgmcu.o ABSOLUTE
    STM32F10x_FWLib\src\stm32f10x_dma.c      0x00000000   Number         0  stm32f10x_dma.o ABSOLUTE
    STM32F10x_FWLib\src\stm32f10x_exti.c     0x00000000   Number         0  stm32f10x_exti.o ABSOLUTE
    STM32F10x_FWLib\src\stm32f10x_flash.c    0x00000000   Number         0  stm32f10x_flash.o ABSOLUTE
    STM32F10x_FWLib\src\stm32f10x_fsmc.c     0x00000000   Number         0  stm32f10x_fsmc.o ABSOLUTE
    STM32F10x_FWLib\src\stm32f10x_gpio.c     0x00000000   Number         0  stm32f10x_gpio.o ABSOLUTE
    STM32F10x_FWLib\src\stm32f10x_i2c.c      0x00000000   Number         0  stm32f10x_i2c.o ABSOLUTE
    STM32F10x_FWLib\src\stm32f10x_iwdg.c     0x00000000   Number         0  stm32f10x_iwdg.o ABSOLUTE
    STM32F10x_FWLib\src\stm32f10x_pwr.c      0x00000000   Number         0  stm32f10x_pwr.o ABSOLUTE
    STM32F10x_FWLib\src\stm32f10x_rcc.c      0x00000000   Number         0  stm32f10x_rcc.o ABSOLUTE
    STM32F10x_FWLib\src\stm32f10x_rtc.c      0x00000000   Number         0  stm32f10x_rtc.o ABSOLUTE
    STM32F10x_FWLib\src\stm32f10x_sdio.c     0x00000000   Number         0  stm32f10x_sdio.o ABSOLUTE
    STM32F10x_FWLib\src\stm32f10x_spi.c      0x00000000   Number         0  stm32f10x_spi.o ABSOLUTE
    STM32F10x_FWLib\src\stm32f10x_tim.c      0x00000000   Number         0  stm32f10x_tim.o ABSOLUTE
    STM32F10x_FWLib\src\stm32f10x_usart.c    0x00000000   Number         0  stm32f10x_usart.o ABSOLUTE
    STM32F10x_FWLib\src\stm32f10x_wwdg.c     0x00000000   Number         0  stm32f10x_wwdg.o ABSOLUTE
    USER\MPU6050\mpu6050.c                   0x00000000   Number         0  mpu6050.o ABSOLUTE
    USER\MPU6050\mpuiic.c                    0x00000000   Number         0  mpuiic.o ABSOLUTE
    USER\adc.c                               0x00000000   Number         0  adc.o ABSOLUTE
    USER\encoder.c                           0x00000000   Number         0  encoder.o ABSOLUTE
    USER\exti.c                              0x00000000   Number         0  exti.o ABSOLUTE
    USER\gpio.c                              0x00000000   Number         0  gpio.o ABSOLUTE
    USER\gpio_iic.c                          0x00000000   Number         0  gpio_iic.o ABSOLUTE
    USER\iic.c                               0x00000000   Number         0  iic.o ABSOLUTE
    USER\led.c                               0x00000000   Number         0  led.o ABSOLUTE
    USER\oled.c                              0x00000000   Number         0  oled.o ABSOLUTE
    USER\pwm.c                               0x00000000   Number         0  pwm.o ABSOLUTE
    USER\timer.c                             0x00000000   Number         0  timer.o ABSOLUTE
    USER\usart.c                             0x00000000   Number         0  usart.o ABSOLUTE
    USER\usart2.c                            0x00000000   Number         0  usart2.o ABSOLUTE
    dc.s                                     0x00000000   Number         0  dc.o ABSOLUTE
    RESET                                    0x08000000   Section      236  startup_stm32f10x_md.o(RESET)
    !!!main                                  0x080000ec   Section        8  __main.o(!!!main)
    !!!scatter                               0x080000f4   Section       52  __scatter.o(!!!scatter)
    !!handler_copy                           0x08000128   Section       26  __scatter_copy.o(!!handler_copy)
    !!handler_zi                             0x08000144   Section       28  __scatter_zi.o(!!handler_zi)
    .ARM.Collect$$_printf_percent$$00000000  0x08000160   Section        0  _printf_percent.o(.ARM.Collect$$_printf_percent$$00000000)
    .ARM.Collect$$_printf_percent$$00000009  0x08000160   Section        6  _printf_d.o(.ARM.Collect$$_printf_percent$$00000009)
    .ARM.Collect$$_printf_percent$$0000000C  0x08000166   Section        6  _printf_x.o(.ARM.Collect$$_printf_percent$$0000000C)
    .ARM.Collect$$_printf_percent$$00000017  0x0800016c   Section        4  _printf_percent_end.o(.ARM.Collect$$_printf_percent$$00000017)
    .ARM.Collect$$libinit$$00000000          0x08000170   Section        2  libinit.o(.ARM.Collect$$libinit$$00000000)
    .ARM.Collect$$libinit$$00000002          0x08000172   Section        0  libinit2.o(.ARM.Collect$$libinit$$00000002)
    .ARM.Collect$$libinit$$00000004          0x08000172   Section        0  libinit2.o(.ARM.Collect$$libinit$$00000004)
    .ARM.Collect$$libinit$$0000000A          0x08000172   Section        0  libinit2.o(.ARM.Collect$$libinit$$0000000A)
    .ARM.Collect$$libinit$$0000000C          0x08000172   Section        0  libinit2.o(.ARM.Collect$$libinit$$0000000C)
    .ARM.Collect$$libinit$$0000000E          0x08000172   Section        0  libinit2.o(.ARM.Collect$$libinit$$0000000E)
    .ARM.Collect$$libinit$$00000011          0x08000172   Section        0  libinit2.o(.ARM.Collect$$libinit$$00000011)
    .ARM.Collect$$libinit$$00000013          0x08000172   Section        0  libinit2.o(.ARM.Collect$$libinit$$00000013)
    .ARM.Collect$$libinit$$00000015          0x08000172   Section        0  libinit2.o(.ARM.Collect$$libinit$$00000015)
    .ARM.Collect$$libinit$$00000017          0x08000172   Section        0  libinit2.o(.ARM.Collect$$libinit$$00000017)
    .ARM.Collect$$libinit$$00000019          0x08000172   Section        0  libinit2.o(.ARM.Collect$$libinit$$00000019)
    .ARM.Collect$$libinit$$0000001B          0x08000172   Section        0  libinit2.o(.ARM.Collect$$libinit$$0000001B)
    .ARM.Collect$$libinit$$0000001D          0x08000172   Section        0  libinit2.o(.ARM.Collect$$libinit$$0000001D)
    .ARM.Collect$$libinit$$0000001F          0x08000172   Section        0  libinit2.o(.ARM.Collect$$libinit$$0000001F)
    .ARM.Collect$$libinit$$00000021          0x08000172   Section        0  libinit2.o(.ARM.Collect$$libinit$$00000021)
    .ARM.Collect$$libinit$$00000023          0x08000172   Section        0  libinit2.o(.ARM.Collect$$libinit$$00000023)
    .ARM.Collect$$libinit$$00000025          0x08000172   Section        0  libinit2.o(.ARM.Collect$$libinit$$00000025)
    .ARM.Collect$$libinit$$0000002C          0x08000172   Section        0  libinit2.o(.ARM.Collect$$libinit$$0000002C)
    .ARM.Collect$$libinit$$0000002E          0x08000172   Section        0  libinit2.o(.ARM.Collect$$libinit$$0000002E)
    .ARM.Collect$$libinit$$00000030          0x08000172   Section        0  libinit2.o(.ARM.Collect$$libinit$$00000030)
    .ARM.Collect$$libinit$$00000032          0x08000172   Section        0  libinit2.o(.ARM.Collect$$libinit$$00000032)
    .ARM.Collect$$libinit$$00000033          0x08000172   Section        2  libinit2.o(.ARM.Collect$$libinit$$00000033)
    .ARM.Collect$$libshutdown$$00000000      0x08000174   Section        2  libshutdown.o(.ARM.Collect$$libshutdown$$00000000)
    .ARM.Collect$$libshutdown$$00000002      0x08000176   Section        0  libshutdown2.o(.ARM.Collect$$libshutdown$$00000002)
    .ARM.Collect$$libshutdown$$00000004      0x08000176   Section        0  libshutdown2.o(.ARM.Collect$$libshutdown$$00000004)
    .ARM.Collect$$libshutdown$$00000007      0x08000176   Section        0  libshutdown2.o(.ARM.Collect$$libshutdown$$00000007)
    .ARM.Collect$$libshutdown$$0000000A      0x08000176   Section        0  libshutdown2.o(.ARM.Collect$$libshutdown$$0000000A)
    .ARM.Collect$$libshutdown$$0000000C      0x08000176   Section        0  libshutdown2.o(.ARM.Collect$$libshutdown$$0000000C)
    .ARM.Collect$$libshutdown$$0000000F      0x08000176   Section        0  libshutdown2.o(.ARM.Collect$$libshutdown$$0000000F)
    .ARM.Collect$$libshutdown$$00000010      0x08000176   Section        2  libshutdown2.o(.ARM.Collect$$libshutdown$$00000010)
    .ARM.Collect$$rtentry$$00000000          0x08000178   Section        0  __rtentry.o(.ARM.Collect$$rtentry$$00000000)
    .ARM.Collect$$rtentry$$00000002          0x08000178   Section        0  __rtentry2.o(.ARM.Collect$$rtentry$$00000002)
    .ARM.Collect$$rtentry$$00000004          0x08000178   Section        6  __rtentry4.o(.ARM.Collect$$rtentry$$00000004)
    .ARM.Collect$$rtentry$$00000009          0x0800017e   Section        0  __rtentry2.o(.ARM.Collect$$rtentry$$00000009)
    .ARM.Collect$$rtentry$$0000000A          0x0800017e   Section        4  __rtentry2.o(.ARM.Collect$$rtentry$$0000000A)
    .ARM.Collect$$rtentry$$0000000C          0x08000182   Section        0  __rtentry2.o(.ARM.Collect$$rtentry$$0000000C)
    .ARM.Collect$$rtentry$$0000000D          0x08000182   Section        8  __rtentry2.o(.ARM.Collect$$rtentry$$0000000D)
    .ARM.Collect$$rtexit$$00000000           0x0800018a   Section        2  rtexit.o(.ARM.Collect$$rtexit$$00000000)
    .ARM.Collect$$rtexit$$00000002           0x0800018c   Section        0  rtexit2.o(.ARM.Collect$$rtexit$$00000002)
    .ARM.Collect$$rtexit$$00000003           0x0800018c   Section        4  rtexit2.o(.ARM.Collect$$rtexit$$00000003)
    .ARM.Collect$$rtexit$$00000004           0x08000190   Section        6  rtexit2.o(.ARM.Collect$$rtexit$$00000004)
    .text                                    0x08000196   Section        0  stm32f10x_it.o(.text)
    .text                                    0x080001b0   Section        0  system_stm32f10x.o(.text)
    SetSysClockTo72                          0x080001b1   Thumb Code   214  system_stm32f10x.o(.text)
    SetSysClock                              0x08000287   Thumb Code     8  system_stm32f10x.o(.text)
    .text                                    0x080003f4   Section        0  delay.o(.text)
    .text                                    0x08000498   Section        0  led.o(.text)
    .text                                    0x080004c8   Section        0  exti.o(.text)
    .text                                    0x08000548   Section        0  usart.o(.text)
    .text                                    0x080007f4   Section        0  pwm.o(.text)
    .text                                    0x08000a0c   Section        0  encoder.o(.text)
    .text                                    0x08000b94   Section        0  main.o(.text)
    .text                                    0x0800101c   Section        0  gpio.o(.text)
    .text                                    0x080010ec   Section        0  usart2.o(.text)
    .text                                    0x080011c0   Section        0  adc.o(.text)
    .text                                    0x080012d8   Section       64  startup_stm32f10x_md.o(.text)
    .text                                    0x08001318   Section        0  misc.o(.text)
    .text                                    0x080013f4   Section        0  stm32f10x_adc.o(.text)
    .text                                    0x08001844   Section        0  stm32f10x_exti.o(.text)
    .text                                    0x08001960   Section        0  stm32f10x_flash.o(.text)
    .text                                    0x08001f1c   Section        0  stm32f10x_gpio.o(.text)
    .text                                    0x08002278   Section        0  stm32f10x_rcc.o(.text)
    .text                                    0x0800261c   Section        0  stm32f10x_tim.o(.text)
    TI4_Config                               0x08002ac3   Thumb Code   130  stm32f10x_tim.o(.text)
    TI3_Config                               0x08002b57   Thumb Code   122  stm32f10x_tim.o(.text)
    TI2_Config                               0x08002beb   Thumb Code   130  stm32f10x_tim.o(.text)
    TI1_Config                               0x08002c7f   Thumb Code   108  stm32f10x_tim.o(.text)
    .text                                    0x08003438   Section        0  stm32f10x_usart.o(.text)
    .text                                    0x08003840   Section        2  use_no_semi_2.o(.text)
    .text                                    0x08003844   Section        0  noretval__2printf.o(.text)
    .text                                    0x0800385c   Section        0  __printf.o(.text)
    .text                                    0x080038c4   Section        0  _printf_dec.o(.text)
    .text                                    0x0800393c   Section        0  _printf_hex_int.o(.text)
    .text                                    0x08003994   Section        0  heapauxi.o(.text)
    .text                                    0x0800399a   Section        2  use_no_semi.o(.text)
    .text                                    0x0800399c   Section        0  _printf_intcommon.o(.text)
    .text                                    0x08003a50   Section        0  _printf_char_file.o(.text)
    .text                                    0x08003a74   Section        0  _printf_char_common.o(.text)
    _printf_input_char                       0x08003a75   Thumb Code    10  _printf_char_common.o(.text)
    .text                                    0x08003aa4   Section        0  ferror.o(.text)
    .text                                    0x08003aac   Section       74  sys_stackheap_outer.o(.text)
    .text                                    0x08003af6   Section        0  exit.o(.text)
    .text                                    0x08003b08   Section        8  libspace.o(.text)
    x$fpl$dcmpinf                            0x08003b10   Section       24  dcmpi.o(x$fpl$dcmpinf)
    x$fpl$ddiv                               0x08003b28   Section      688  ddiv.o(x$fpl$ddiv)
    ddiv_entry                               0x08003b2f   Thumb Code     0  ddiv.o(x$fpl$ddiv)
    x$fpl$dfix                               0x08003dd8   Section       94  dfix.o(x$fpl$dfix)
    x$fpl$dfixu                              0x08003e38   Section       90  dfixu.o(x$fpl$dfixu)
    x$fpl$dfltu                              0x08003e92   Section       38  dflt_clz.o(x$fpl$dfltu)
    x$fpl$dleqf                              0x08003eb8   Section      120  dleqf.o(x$fpl$dleqf)
    x$fpl$dmul                               0x08003f30   Section      340  dmul.o(x$fpl$dmul)
    x$fpl$dnaninf                            0x08004084   Section      156  dnaninf.o(x$fpl$dnaninf)
    x$fpl$dretinf                            0x08004120   Section       12  dretinf.o(x$fpl$dretinf)
    x$fpl$drleqf                             0x0800412c   Section      108  drleqf.o(x$fpl$drleqf)
    x$fpl$f2d                                0x08004198   Section       86  f2d.o(x$fpl$f2d)
    x$fpl$fadd                               0x080041f0   Section      196  faddsub_clz.o(x$fpl$fadd)
    _fadd1                                   0x080041ff   Thumb Code     0  faddsub_clz.o(x$fpl$fadd)
    x$fpl$fflt                               0x080042b4   Section       48  fflt_clz.o(x$fpl$fflt)
    x$fpl$ffltu                              0x080042e4   Section       38  fflt_clz.o(x$fpl$ffltu)
    x$fpl$fnaninf                            0x0800430a   Section      140  fnaninf.o(x$fpl$fnaninf)
    x$fpl$fretinf                            0x08004396   Section       10  fretinf.o(x$fpl$fretinf)
    x$fpl$fsub                               0x080043a0   Section      234  faddsub_clz.o(x$fpl$fsub)
    _fsub1                                   0x080043af   Thumb Code     0  faddsub_clz.o(x$fpl$fsub)
    .constdata                               0x0800448a   Section       40  _printf_hex_int.o(.constdata)
    x$fpl$usenofp                            0x0800448a   Section        0  usenofp.o(x$fpl$usenofp)
    uc_hextab                                0x0800448a   Data          20  _printf_hex_int.o(.constdata)
    lc_hextab                                0x0800449e   Data          20  _printf_hex_int.o(.constdata)
    .data                                    0x20000000   Section       20  system_stm32f10x.o(.data)
    .data                                    0x20000014   Section        1  exti.o(.data)
    .data                                    0x20000018   Section        8  usart.o(.data)
    l_ch                                     0x2000001d   Data           1  usart.o(.data)
    ll_ch                                    0x2000001e   Data           1  usart.o(.data)
    lll_ch                                   0x2000001f   Data           1  usart.o(.data)
    .data                                    0x20000020   Section       26  main.o(.data)
    pwm1                                     0x20000036   Data           2  main.o(.data)
    pwm2                                     0x20000038   Data           2  main.o(.data)
    .data                                    0x2000003a   Section        1  usart2.o(.data)
    last_ch                                  0x2000003a   Data           1  usart2.o(.data)
    .data                                    0x2000003b   Section       20  stm32f10x_rcc.o(.data)
    APBAHBPrescTable                         0x2000003b   Data          16  stm32f10x_rcc.o(.data)
    ADCPrescTable                            0x2000004b   Data           4  stm32f10x_rcc.o(.data)
    .bss                                     0x20000050   Section      100  usart.o(.bss)
    .bss                                     0x200000b4   Section       28  main.o(.bss)
    .bss                                     0x200000d0   Section       96  libspace.o(.bss)
    HEAP                                     0x20000130   Section      512  startup_stm32f10x_md.o(HEAP)
    Heap_Mem                                 0x20000130   Data         512  startup_stm32f10x_md.o(HEAP)
    STACK                                    0x20000330   Section     1024  startup_stm32f10x_md.o(STACK)
    Stack_Mem                                0x20000330   Data        1024  startup_stm32f10x_md.o(STACK)
    __initial_sp                             0x20000730   Data           0  startup_stm32f10x_md.o(STACK)

    Global Symbols

    Symbol Name                              Value     Ov Type        Size  Object(Section)

    BuildAttributes$$THM_ISAv4$P$D$K$B$S$PE$A:L22UL41UL21$X:L11$S22US41US21$IEEE1$IW$USESV6$~STKCKD$USESV7$~SHL$OSPACE$ROPI$EBA8$UX$STANDARDLIB$REQ8$PRES8$EABIv2 0x00000000   Number         0  anon$$obj.o ABSOLUTE
    __ARM_use_no_argv                        0x00000000   Number         0  main.o ABSOLUTE
    __ARM_exceptions_init                     - Undefined Weak Reference
    __alloca_initialize                       - Undefined Weak Reference
    __arm_preinit_                            - Undefined Weak Reference
    __cpp_initialize__aeabi_                  - Undefined Weak Reference
    __cxa_finalize                            - Undefined Weak Reference
    __rt_locale                               - Undefined Weak Reference
    __sigvec_lookup                           - Undefined Weak Reference
    _atexit_init                              - Undefined Weak Reference
    _call_atexit_fns                          - Undefined Weak Reference
    _clock_init                               - Undefined Weak Reference
    _fp_trap_init                             - Undefined Weak Reference
    _fp_trap_shutdown                         - Undefined Weak Reference
    _get_lc_collate                           - Undefined Weak Reference
    _get_lc_ctype                             - Undefined Weak Reference
    _get_lc_monetary                          - Undefined Weak Reference
    _get_lc_numeric                           - Undefined Weak Reference
    _get_lc_time                              - Undefined Weak Reference
    _getenv_init                              - Undefined Weak Reference
    _handle_redirection                       - Undefined Weak Reference
    _init_alloc                               - Undefined Weak Reference
    _init_user_alloc                          - Undefined Weak Reference
    _initio                                   - Undefined Weak Reference
    _mutex_acquire                            - Undefined Weak Reference
    _mutex_release                            - Undefined Weak Reference
    _printf_post_padding                      - Undefined Weak Reference
    _printf_pre_padding                       - Undefined Weak Reference
    _printf_truncate_signed                   - Undefined Weak Reference
    _printf_truncate_unsigned                 - Undefined Weak Reference
    _rand_init                                - Undefined Weak Reference
    _signal_finish                            - Undefined Weak Reference
    _signal_init                              - Undefined Weak Reference
    _terminate_alloc                          - Undefined Weak Reference
    _terminate_user_alloc                     - Undefined Weak Reference
    _terminateio                              - Undefined Weak Reference
    __Vectors_Size                           0x000000ec   Number         0  startup_stm32f10x_md.o ABSOLUTE
    __Vectors                                0x08000000   Data           4  startup_stm32f10x_md.o(RESET)
    __Vectors_End                            0x080000ec   Data           0  startup_stm32f10x_md.o(RESET)
    __main                                   0x080000ed   Thumb Code     8  __main.o(!!!main)
    __scatterload                            0x080000f5   Thumb Code     0  __scatter.o(!!!scatter)
    __scatterload_rt2                        0x080000f5   Thumb Code    44  __scatter.o(!!!scatter)
    __scatterload_rt2_thumb_only             0x080000f5   Thumb Code     0  __scatter.o(!!!scatter)
    __scatterload_null                       0x08000103   Thumb Code     0  __scatter.o(!!!scatter)
    __scatterload_copy                       0x08000129   Thumb Code    26  __scatter_copy.o(!!handler_copy)
    __scatterload_zeroinit                   0x08000145   Thumb Code    28  __scatter_zi.o(!!handler_zi)
    _printf_d                                0x08000161   Thumb Code     0  _printf_d.o(.ARM.Collect$$_printf_percent$$00000009)
    _printf_percent                          0x08000161   Thumb Code     0  _printf_percent.o(.ARM.Collect$$_printf_percent$$00000000)
    _printf_x                                0x08000167   Thumb Code     0  _printf_x.o(.ARM.Collect$$_printf_percent$$0000000C)
    _printf_percent_end                      0x0800016d   Thumb Code     0  _printf_percent_end.o(.ARM.Collect$$_printf_percent$$00000017)
    __rt_lib_init                            0x08000171   Thumb Code     0  libinit.o(.ARM.Collect$$libinit$$00000000)
    __rt_lib_init_alloca_1                   0x08000173   Thumb Code     0  libinit2.o(.ARM.Collect$$libinit$$0000002E)
    __rt_lib_init_argv_1                     0x08000173   Thumb Code     0  libinit2.o(.ARM.Collect$$libinit$$0000002C)
    __rt_lib_init_atexit_1                   0x08000173   Thumb Code     0  libinit2.o(.ARM.Collect$$libinit$$0000001B)
    __rt_lib_init_clock_1                    0x08000173   Thumb Code     0  libinit2.o(.ARM.Collect$$libinit$$00000021)
    __rt_lib_init_cpp_1                      0x08000173   Thumb Code     0  libinit2.o(.ARM.Collect$$libinit$$00000032)
    __rt_lib_init_exceptions_1               0x08000173   Thumb Code     0  libinit2.o(.ARM.Collect$$libinit$$00000030)
    __rt_lib_init_fp_1                       0x08000173   Thumb Code     0  libinit2.o(.ARM.Collect$$libinit$$00000002)
    __rt_lib_init_fp_trap_1                  0x08000173   Thumb Code     0  libinit2.o(.ARM.Collect$$libinit$$0000001F)
    __rt_lib_init_getenv_1                   0x08000173   Thumb Code     0  libinit2.o(.ARM.Collect$$libinit$$00000023)
    __rt_lib_init_heap_1                     0x08000173   Thumb Code     0  libinit2.o(.ARM.Collect$$libinit$$0000000A)
    __rt_lib_init_lc_collate_1               0x08000173   Thumb Code     0  libinit2.o(.ARM.Collect$$libinit$$00000011)
    __rt_lib_init_lc_ctype_1                 0x08000173   Thumb Code     0  libinit2.o(.ARM.Collect$$libinit$$00000013)
    __rt_lib_init_lc_monetary_1              0x08000173   Thumb Code     0  libinit2.o(.ARM.Collect$$libinit$$00000015)
    __rt_lib_init_lc_numeric_1               0x08000173   Thumb Code     0  libinit2.o(.ARM.Collect$$libinit$$00000017)
    __rt_lib_init_lc_time_1                  0x08000173   Thumb Code     0  libinit2.o(.ARM.Collect$$libinit$$00000019)
    __rt_lib_init_preinit_1                  0x08000173   Thumb Code     0  libinit2.o(.ARM.Collect$$libinit$$00000004)
    __rt_lib_init_rand_1                     0x08000173   Thumb Code     0  libinit2.o(.ARM.Collect$$libinit$$0000000E)
    __rt_lib_init_return                     0x08000173   Thumb Code     0  libinit2.o(.ARM.Collect$$libinit$$00000033)
    __rt_lib_init_signal_1                   0x08000173   Thumb Code     0  libinit2.o(.ARM.Collect$$libinit$$0000001D)
    __rt_lib_init_stdio_1                    0x08000173   Thumb Code     0  libinit2.o(.ARM.Collect$$libinit$$00000025)
    __rt_lib_init_user_alloc_1               0x08000173   Thumb Code     0  libinit2.o(.ARM.Collect$$libinit$$0000000C)
    __rt_lib_shutdown                        0x08000175   Thumb Code     0  libshutdown.o(.ARM.Collect$$libshutdown$$00000000)
    __rt_lib_shutdown_cpp_1                  0x08000177   Thumb Code     0  libshutdown2.o(.ARM.Collect$$libshutdown$$00000002)
    __rt_lib_shutdown_fp_trap_1              0x08000177   Thumb Code     0  libshutdown2.o(.ARM.Collect$$libshutdown$$00000007)
    __rt_lib_shutdown_heap_1                 0x08000177   Thumb Code     0  libshutdown2.o(.ARM.Collect$$libshutdown$$0000000F)
    __rt_lib_shutdown_return                 0x08000177   Thumb Code     0  libshutdown2.o(.ARM.Collect$$libshutdown$$00000010)
    __rt_lib_shutdown_signal_1               0x08000177   Thumb Code     0  libshutdown2.o(.ARM.Collect$$libshutdown$$0000000A)
    __rt_lib_shutdown_stdio_1                0x08000177   Thumb Code     0  libshutdown2.o(.ARM.Collect$$libshutdown$$00000004)
    __rt_lib_shutdown_user_alloc_1           0x08000177   Thumb Code     0  libshutdown2.o(.ARM.Collect$$libshutdown$$0000000C)
    __rt_entry                               0x08000179   Thumb Code     0  __rtentry.o(.ARM.Collect$$rtentry$$00000000)
    __rt_entry_presh_1                       0x08000179   Thumb Code     0  __rtentry2.o(.ARM.Collect$$rtentry$$00000002)
    __rt_entry_sh                            0x08000179   Thumb Code     0  __rtentry4.o(.ARM.Collect$$rtentry$$00000004)
    __rt_entry_li                            0x0800017f   Thumb Code     0  __rtentry2.o(.ARM.Collect$$rtentry$$0000000A)
    __rt_entry_postsh_1                      0x0800017f   Thumb Code     0  __rtentry2.o(.ARM.Collect$$rtentry$$00000009)
    __rt_entry_main                          0x08000183   Thumb Code     0  __rtentry2.o(.ARM.Collect$$rtentry$$0000000D)
    __rt_entry_postli_1                      0x08000183   Thumb Code     0  __rtentry2.o(.ARM.Collect$$rtentry$$0000000C)
    __rt_exit                                0x0800018b   Thumb Code     0  rtexit.o(.ARM.Collect$$rtexit$$00000000)
    __rt_exit_ls                             0x0800018d   Thumb Code     0  rtexit2.o(.ARM.Collect$$rtexit$$00000003)
    __rt_exit_prels_1                        0x0800018d   Thumb Code     0  rtexit2.o(.ARM.Collect$$rtexit$$00000002)
    __rt_exit_exit                           0x08000191   Thumb Code     0  rtexit2.o(.ARM.Collect$$rtexit$$00000004)
    NMI_Handler                              0x08000197   Thumb Code     2  stm32f10x_it.o(.text)
    HardFault_Handler                        0x08000199   Thumb Code     4  stm32f10x_it.o(.text)
    MemManage_Handler                        0x0800019d   Thumb Code     4  stm32f10x_it.o(.text)
    BusFault_Handler                         0x080001a1   Thumb Code     4  stm32f10x_it.o(.text)
    UsageFault_Handler                       0x080001a5   Thumb Code     4  stm32f10x_it.o(.text)
    SVC_Handler                              0x080001a9   Thumb Code     2  stm32f10x_it.o(.text)
    DebugMon_Handler                         0x080001ab   Thumb Code     2  stm32f10x_it.o(.text)
    PendSV_Handler                           0x080001ad   Thumb Code     2  stm32f10x_it.o(.text)
    SystemInit                               0x0800028f   Thumb Code    78  system_stm32f10x.o(.text)
    SystemInit_HSI_64MHz                     0x080002dd   Thumb Code   102  system_stm32f10x.o(.text)
    SystemCoreClockUpdate                    0x08000343   Thumb Code   142  system_stm32f10x.o(.text)
    delay_nop_us                             0x080003f5   Thumb Code   140  delay.o(.text)
    delay_nop_ms                             0x08000481   Thumb Code    24  delay.o(.text)
    LED_Init                                 0x08000499   Thumb Code    44  led.o(.text)
    EXTIX_Init                               0x080004c9   Thumb Code    96  exti.o(.text)
    EXTI9_5_IRQHandler                       0x08000529   Thumb Code    24  exti.o(.text)
    _sys_exit                                0x08000549   Thumb Code     6  usart.o(.text)
    fputc                                    0x0800054f   Thumb Code    24  usart.o(.text)
    uart1_init                               0x08000567   Thumb Code   158  usart.o(.text)
    receive_finished_process                 0x08000605   Thumb Code   202  usart.o(.text)
    USART1_IRQHandler                        0x080006cf   Thumb Code   116  usart.o(.text)
    pwm_ouput_tb6612                         0x080007f5   Thumb Code   120  pwm.o(.text)
    pwm_tim1_init_tb6612                     0x0800086d   Thumb Code   200  pwm.o(.text)
    pwm_tim4_init                            0x08000935   Thumb Code   200  pwm.o(.text)
    encoder_tim2_init                        0x08000a0d   Thumb Code   152  encoder.o(.text)
    encoder_tim3_init                        0x08000aa5   Thumb Code   148  encoder.o(.text)
    read_encoder_tim2                        0x08000b39   Thumb Code    18  encoder.o(.text)
    read_encoder_tim3                        0x08000b4b   Thumb Code    18  encoder.o(.text)
    TIM3_IRQHandler                          0x08000b5d   Thumb Code    24  encoder.o(.text)
    TIM2_IRQHandler                          0x08000b75   Thumb Code    24  encoder.o(.text)
    gpio_pwm_out                             0x08000b95   Thumb Code    34  main.o(.text)
    gpio_pwm_open                            0x08000bb7   Thumb Code    32  main.o(.text)
    gpio_pwm_close                           0x08000bd7   Thumb Code    32  main.o(.text)
    main                                     0x08000bf7   Thumb Code   622  main.o(.text)
    SysTick_Handler                          0x08000e65   Thumb Code   176  main.o(.text)
    gpio_motor_dirve_init                    0x0800101d   Thumb Code   124  gpio.o(.text)
    gpio_input_init                          0x08001099   Thumb Code    72  gpio.o(.text)
    uart2_init                               0x080010ed   Thumb Code   154  usart2.o(.text)
    USART2_IRQHandler                        0x08001187   Thumb Code    38  usart2.o(.text)
    adc_init                                 0x080011c1   Thumb Code   132  adc.o(.text)
    get_adc                                  0x08001245   Thumb Code    46  adc.o(.text)
    get_adc_mV                               0x08001273   Thumb Code    80  adc.o(.text)
    Reset_Handler                            0x080012d9   Thumb Code     8  startup_stm32f10x_md.o(.text)
    ADC1_2_IRQHandler                        0x080012f3   Thumb Code     0  startup_stm32f10x_md.o(.text)
    CAN1_RX1_IRQHandler                      0x080012f3   Thumb Code     0  startup_stm32f10x_md.o(.text)
    CAN1_SCE_IRQHandler                      0x080012f3   Thumb Code     0  startup_stm32f10x_md.o(.text)
    DMA1_Channel1_IRQHandler                 0x080012f3   Thumb Code     0  startup_stm32f10x_md.o(.text)
    DMA1_Channel2_IRQHandler                 0x080012f3   Thumb Code     0  startup_stm32f10x_md.o(.text)
    DMA1_Channel3_IRQHandler                 0x080012f3   Thumb Code     0  startup_stm32f10x_md.o(.text)
    DMA1_Channel4_IRQHandler                 0x080012f3   Thumb Code     0  startup_stm32f10x_md.o(.text)
    DMA1_Channel5_IRQHandler                 0x080012f3   Thumb Code     0  startup_stm32f10x_md.o(.text)
    DMA1_Channel6_IRQHandler                 0x080012f3   Thumb Code     0  startup_stm32f10x_md.o(.text)
    DMA1_Channel7_IRQHandler                 0x080012f3   Thumb Code     0  startup_stm32f10x_md.o(.text)
    EXTI0_IRQHandler                         0x080012f3   Thumb Code     0  startup_stm32f10x_md.o(.text)
    EXTI15_10_IRQHandler                     0x080012f3   Thumb Code     0  startup_stm32f10x_md.o(.text)
    EXTI1_IRQHandler                         0x080012f3   Thumb Code     0  startup_stm32f10x_md.o(.text)
    EXTI2_IRQHandler                         0x080012f3   Thumb Code     0  startup_stm32f10x_md.o(.text)
    EXTI3_IRQHandler                         0x080012f3   Thumb Code     0  startup_stm32f10x_md.o(.text)
    EXTI4_IRQHandler                         0x080012f3   Thumb Code     0  startup_stm32f10x_md.o(.text)
    FLASH_IRQHandler                         0x080012f3   Thumb Code     0  startup_stm32f10x_md.o(.text)
    I2C1_ER_IRQHandler                       0x080012f3   Thumb Code     0  startup_stm32f10x_md.o(.text)
    I2C1_EV_IRQHandler                       0x080012f3   Thumb Code     0  startup_stm32f10x_md.o(.text)
    I2C2_ER_IRQHandler                       0x080012f3   Thumb Code     0  startup_stm32f10x_md.o(.text)
    I2C2_EV_IRQHandler                       0x080012f3   Thumb Code     0  startup_stm32f10x_md.o(.text)
    PVD_IRQHandler                           0x080012f3   Thumb Code     0  startup_stm32f10x_md.o(.text)
    RCC_IRQHandler                           0x080012f3   Thumb Code     0  startup_stm32f10x_md.o(.text)
    RTCAlarm_IRQHandler                      0x080012f3   Thumb Code     0  startup_stm32f10x_md.o(.text)
    RTC_IRQHandler                           0x080012f3   Thumb Code     0  startup_stm32f10x_md.o(.text)
    SPI1_IRQHandler                          0x080012f3   Thumb Code     0  startup_stm32f10x_md.o(.text)
    SPI2_IRQHandler                          0x080012f3   Thumb Code     0  startup_stm32f10x_md.o(.text)
    TAMPER_IRQHandler                        0x080012f3   Thumb Code     0  startup_stm32f10x_md.o(.text)
    TIM1_BRK_IRQHandler                      0x080012f3   Thumb Code     0  startup_stm32f10x_md.o(.text)
    TIM1_CC_IRQHandler                       0x080012f3   Thumb Code     0  startup_stm32f10x_md.o(.text)
    TIM1_TRG_COM_IRQHandler                  0x080012f3   Thumb Code     0  startup_stm32f10x_md.o(.text)
    TIM1_UP_IRQHandler                       0x080012f3   Thumb Code     0  startup_stm32f10x_md.o(.text)
    TIM4_IRQHandler                          0x080012f3   Thumb Code     0  startup_stm32f10x_md.o(.text)
    USART3_IRQHandler                        0x080012f3   Thumb Code     0  startup_stm32f10x_md.o(.text)
    USBWakeUp_IRQHandler                     0x080012f3   Thumb Code     0  startup_stm32f10x_md.o(.text)
    USB_HP_CAN1_TX_IRQHandler                0x080012f3   Thumb Code     0  startup_stm32f10x_md.o(.text)
    USB_LP_CAN1_RX0_IRQHandler               0x080012f3   Thumb Code     0  startup_stm32f10x_md.o(.text)
    WWDG_IRQHandler                          0x080012f3   Thumb Code     0  startup_stm32f10x_md.o(.text)
    __user_initial_stackheap                 0x080012f5   Thumb Code     0  startup_stm32f10x_md.o(.text)
    NVIC_PriorityGroupConfig                 0x08001319   Thumb Code    10  misc.o(.text)
    NVIC_Init                                0x08001323   Thumb Code   100  misc.o(.text)
    NVIC_SetVectorTable                      0x08001387   Thumb Code    14  misc.o(.text)
    NVIC_SystemLPConfig                      0x08001395   Thumb Code    34  misc.o(.text)
    SysTick_CLKSourceConfig                  0x080013b7   Thumb Code    40  misc.o(.text)
    ADC_DeInit                               0x080013f5   Thumb Code    78  stm32f10x_adc.o(.text)
    ADC_Init                                 0x08001443   Thumb Code    70  stm32f10x_adc.o(.text)
    ADC_StructInit                           0x08001489   Thumb Code    18  stm32f10x_adc.o(.text)
    ADC_Cmd                                  0x0800149b   Thumb Code    22  stm32f10x_adc.o(.text)
    ADC_DMACmd                               0x080014b1   Thumb Code    22  stm32f10x_adc.o(.text)
    ADC_ITConfig                             0x080014c7   Thumb Code    24  stm32f10x_adc.o(.text)
    ADC_ResetCalibration                     0x080014df   Thumb Code    10  stm32f10x_adc.o(.text)
    ADC_GetResetCalibrationStatus            0x080014e9   Thumb Code    20  stm32f10x_adc.o(.text)
    ADC_StartCalibration                     0x080014fd   Thumb Code    10  stm32f10x_adc.o(.text)
    ADC_GetCalibrationStatus                 0x08001507   Thumb Code    20  stm32f10x_adc.o(.text)
    ADC_SoftwareStartConvCmd                 0x0800151b   Thumb Code    22  stm32f10x_adc.o(.text)
    ADC_GetSoftwareStartConvStatus           0x08001531   Thumb Code    20  stm32f10x_adc.o(.text)
    ADC_DiscModeChannelCountConfig           0x08001545   Thumb Code    24  stm32f10x_adc.o(.text)
    ADC_DiscModeCmd                          0x0800155d   Thumb Code    22  stm32f10x_adc.o(.text)
    ADC_RegularChannelConfig                 0x08001573   Thumb Code   184  stm32f10x_adc.o(.text)
    ADC_ExternalTrigConvCmd                  0x0800162b   Thumb Code    22  stm32f10x_adc.o(.text)
    ADC_GetConversionValue                   0x08001641   Thumb Code     8  stm32f10x_adc.o(.text)
    ADC_GetDualModeConversionValue           0x08001649   Thumb Code     8  stm32f10x_adc.o(.text)
    ADC_AutoInjectedConvCmd                  0x08001651   Thumb Code    22  stm32f10x_adc.o(.text)
    ADC_InjectedDiscModeCmd                  0x08001667   Thumb Code    22  stm32f10x_adc.o(.text)
    ADC_ExternalTrigInjectedConvConfig       0x0800167d   Thumb Code    16  stm32f10x_adc.o(.text)
    ADC_ExternalTrigInjectedConvCmd          0x0800168d   Thumb Code    22  stm32f10x_adc.o(.text)
    ADC_SoftwareStartInjectedConvCmd         0x080016a3   Thumb Code    22  stm32f10x_adc.o(.text)
    ADC_GetSoftwareStartInjectedConvCmdStatus 0x080016b9   Thumb Code    20  stm32f10x_adc.o(.text)
    ADC_InjectedChannelConfig                0x080016cd   Thumb Code   130  stm32f10x_adc.o(.text)
    ADC_InjectedSequencerLengthConfig        0x0800174f   Thumb Code    24  stm32f10x_adc.o(.text)
    ADC_SetInjectedOffset                    0x08001767   Thumb Code    20  stm32f10x_adc.o(.text)
    ADC_GetInjectedConversionValue           0x0800177b   Thumb Code    28  stm32f10x_adc.o(.text)
    ADC_AnalogWatchdogCmd                    0x08001797   Thumb Code    16  stm32f10x_adc.o(.text)
    ADC_AnalogWatchdogThresholdsConfig       0x080017a7   Thumb Code     6  stm32f10x_adc.o(.text)
    ADC_AnalogWatchdogSingleChannelConfig    0x080017ad   Thumb Code    16  stm32f10x_adc.o(.text)
    ADC_TempSensorVrefintCmd                 0x080017bd   Thumb Code    64  stm32f10x_adc.o(.text)
    ADC_GetFlagStatus                        0x080017fd   Thumb Code    18  stm32f10x_adc.o(.text)
    ADC_ClearFlag                            0x0800180f   Thumb Code     6  stm32f10x_adc.o(.text)
    ADC_GetITStatus                          0x08001815   Thumb Code    36  stm32f10x_adc.o(.text)
    ADC_ClearITPendingBit                    0x08001839   Thumb Code    10  stm32f10x_adc.o(.text)
    EXTI_DeInit                              0x08001845   Thumb Code    28  stm32f10x_exti.o(.text)
    EXTI_Init                                0x08001861   Thumb Code   142  stm32f10x_exti.o(.text)
    EXTI_StructInit                          0x080018ef   Thumb Code    16  stm32f10x_exti.o(.text)
    EXTI_GenerateSWInterrupt                 0x080018ff   Thumb Code    16  stm32f10x_exti.o(.text)
    EXTI_GetFlagStatus                       0x0800190f   Thumb Code    22  stm32f10x_exti.o(.text)
    EXTI_ClearFlag                           0x08001925   Thumb Code     8  stm32f10x_exti.o(.text)
    EXTI_GetITStatus                         0x0800192d   Thumb Code    34  stm32f10x_exti.o(.text)
    EXTI_ClearITPendingBit                   0x0800194f   Thumb Code     8  stm32f10x_exti.o(.text)
    FLASH_SetLatency                         0x08001961   Thumb Code    18  stm32f10x_flash.o(.text)
    FLASH_HalfCycleAccessCmd                 0x08001973   Thumb Code    22  stm32f10x_flash.o(.text)
    FLASH_PrefetchBufferCmd                  0x08001989   Thumb Code    22  stm32f10x_flash.o(.text)
    FLASH_Unlock                             0x0800199f   Thumb Code    12  stm32f10x_flash.o(.text)
    FLASH_UnlockBank1                        0x080019ab   Thumb Code    12  stm32f10x_flash.o(.text)
    FLASH_Lock                               0x080019b7   Thumb Code    14  stm32f10x_flash.o(.text)
    FLASH_LockBank1                          0x080019c5   Thumb Code    14  stm32f10x_flash.o(.text)
    FLASH_GetBank1Status                     0x080019d3   Thumb Code    48  stm32f10x_flash.o(.text)
    FLASH_WaitForLastOperation               0x08001a03   Thumb Code    38  stm32f10x_flash.o(.text)
    FLASH_ErasePage                          0x08001a29   Thumb Code    72  stm32f10x_flash.o(.text)
    FLASH_EraseAllPages                      0x08001a71   Thumb Code    68  stm32f10x_flash.o(.text)
    FLASH_WaitForLastBank1Operation          0x08001ab5   Thumb Code    38  stm32f10x_flash.o(.text)
    FLASH_EraseAllBank1Pages                 0x08001adb   Thumb Code    68  stm32f10x_flash.o(.text)
    FLASH_GetReadOutProtectionStatus         0x08001b1f   Thumb Code    20  stm32f10x_flash.o(.text)
    FLASH_EraseOptionBytes                   0x08001b33   Thumb Code   150  stm32f10x_flash.o(.text)
    FLASH_ProgramWord                        0x08001bc9   Thumb Code   102  stm32f10x_flash.o(.text)
    FLASH_ProgramHalfWord                    0x08001c2f   Thumb Code    60  stm32f10x_flash.o(.text)
    FLASH_ProgramOptionByteData              0x08001c6b   Thumb Code    72  stm32f10x_flash.o(.text)
    FLASH_EnableWriteProtection              0x08001cb3   Thumb Code   200  stm32f10x_flash.o(.text)
    FLASH_ReadOutProtection                  0x08001d7b   Thumb Code   156  stm32f10x_flash.o(.text)
    FLASH_UserOptionByteConfig               0x08001e17   Thumb Code    88  stm32f10x_flash.o(.text)
    FLASH_GetUserOptionByte                  0x08001e6f   Thumb Code     8  stm32f10x_flash.o(.text)
    FLASH_GetWriteProtectionOptionByte       0x08001e77   Thumb Code     6  stm32f10x_flash.o(.text)
    FLASH_GetPrefetchBufferStatus            0x08001e7d   Thumb Code    20  stm32f10x_flash.o(.text)
    FLASH_ITConfig                           0x08001e91   Thumb Code    26  stm32f10x_flash.o(.text)
    FLASH_GetFlagStatus                      0x08001eab   Thumb Code    42  stm32f10x_flash.o(.text)
    FLASH_ClearFlag                          0x08001ed5   Thumb Code     6  stm32f10x_flash.o(.text)
    FLASH_GetStatus                          0x08001edb   Thumb Code    48  stm32f10x_flash.o(.text)
    GPIO_DeInit                              0x08001f1d   Thumb Code   172  stm32f10x_gpio.o(.text)
    GPIO_AFIODeInit                          0x08001fc9   Thumb Code    20  stm32f10x_gpio.o(.text)
    GPIO_Init                                0x08001fdd   Thumb Code   278  stm32f10x_gpio.o(.text)
    GPIO_StructInit                          0x080020f3   Thumb Code    16  stm32f10x_gpio.o(.text)
    GPIO_ReadInputDataBit                    0x08002103   Thumb Code    18  stm32f10x_gpio.o(.text)
    GPIO_ReadInputData                       0x08002115   Thumb Code     8  stm32f10x_gpio.o(.text)
    GPIO_ReadOutputDataBit                   0x0800211d   Thumb Code    18  stm32f10x_gpio.o(.text)
    GPIO_ReadOutputData                      0x0800212f   Thumb Code     8  stm32f10x_gpio.o(.text)
    GPIO_SetBits                             0x08002137   Thumb Code     4  stm32f10x_gpio.o(.text)
    GPIO_ResetBits                           0x0800213b   Thumb Code     4  stm32f10x_gpio.o(.text)
    GPIO_WriteBit                            0x0800213f   Thumb Code    10  stm32f10x_gpio.o(.text)
    GPIO_Write                               0x08002149   Thumb Code     4  stm32f10x_gpio.o(.text)
    GPIO_PinLockConfig                       0x0800214d   Thumb Code    18  stm32f10x_gpio.o(.text)
    GPIO_EventOutputConfig                   0x0800215f   Thumb Code    26  stm32f10x_gpio.o(.text)
    GPIO_EventOutputCmd                      0x08002179   Thumb Code     6  stm32f10x_gpio.o(.text)
    GPIO_PinRemapConfig                      0x0800217f   Thumb Code   138  stm32f10x_gpio.o(.text)
    GPIO_EXTILineConfig                      0x08002209   Thumb Code    66  stm32f10x_gpio.o(.text)
    GPIO_ETH_MediaInterfaceConfig            0x0800224b   Thumb Code     8  stm32f10x_gpio.o(.text)
    RCC_DeInit                               0x08002279   Thumb Code    64  stm32f10x_rcc.o(.text)
    RCC_HSEConfig                            0x080022b9   Thumb Code    70  stm32f10x_rcc.o(.text)
    RCC_GetFlagStatus                        0x080022ff   Thumb Code    56  stm32f10x_rcc.o(.text)
    RCC_WaitForHSEStartUp                    0x08002337   Thumb Code    56  stm32f10x_rcc.o(.text)
    RCC_AdjustHSICalibrationValue            0x0800236f   Thumb Code    20  stm32f10x_rcc.o(.text)
    RCC_HSICmd                               0x08002383   Thumb Code     6  stm32f10x_rcc.o(.text)
    RCC_PLLConfig                            0x08002389   Thumb Code    24  stm32f10x_rcc.o(.text)
    RCC_PLLCmd                               0x080023a1   Thumb Code     6  stm32f10x_rcc.o(.text)
    RCC_SYSCLKConfig                         0x080023a7   Thumb Code    18  stm32f10x_rcc.o(.text)
    RCC_GetSYSCLKSource                      0x080023b9   Thumb Code    10  stm32f10x_rcc.o(.text)
    RCC_HCLKConfig                           0x080023c3   Thumb Code    18  stm32f10x_rcc.o(.text)
    RCC_PCLK1Config                          0x080023d5   Thumb Code    18  stm32f10x_rcc.o(.text)
    RCC_PCLK2Config                          0x080023e7   Thumb Code    20  stm32f10x_rcc.o(.text)
    RCC_ITConfig                             0x080023fb   Thumb Code    26  stm32f10x_rcc.o(.text)
    RCC_USBCLKConfig                         0x08002415   Thumb Code     8  stm32f10x_rcc.o(.text)
    RCC_ADCCLKConfig                         0x0800241d   Thumb Code    18  stm32f10x_rcc.o(.text)
    RCC_LSEConfig                            0x0800242f   Thumb Code    50  stm32f10x_rcc.o(.text)
    RCC_LSICmd                               0x08002461   Thumb Code     6  stm32f10x_rcc.o(.text)
    RCC_RTCCLKConfig                         0x08002467   Thumb Code    12  stm32f10x_rcc.o(.text)
    RCC_RTCCLKCmd                            0x08002473   Thumb Code     8  stm32f10x_rcc.o(.text)
    RCC_GetClocksFreq                        0x0800247b   Thumb Code   192  stm32f10x_rcc.o(.text)
    RCC_AHBPeriphClockCmd                    0x0800253b   Thumb Code    26  stm32f10x_rcc.o(.text)
    RCC_APB2PeriphClockCmd                   0x08002555   Thumb Code    26  stm32f10x_rcc.o(.text)
    RCC_APB1PeriphClockCmd                   0x0800256f   Thumb Code    26  stm32f10x_rcc.o(.text)
    RCC_APB2PeriphResetCmd                   0x08002589   Thumb Code    26  stm32f10x_rcc.o(.text)
    RCC_APB1PeriphResetCmd                   0x080025a3   Thumb Code    26  stm32f10x_rcc.o(.text)
    RCC_BackupResetCmd                       0x080025bd   Thumb Code     8  stm32f10x_rcc.o(.text)
    RCC_ClockSecuritySystemCmd               0x080025c5   Thumb Code     6  stm32f10x_rcc.o(.text)
    RCC_MCOConfig                            0x080025cb   Thumb Code     6  stm32f10x_rcc.o(.text)
    RCC_ClearFlag                            0x080025d1   Thumb Code    14  stm32f10x_rcc.o(.text)
    RCC_GetITStatus                          0x080025df   Thumb Code    20  stm32f10x_rcc.o(.text)
    RCC_ClearITPendingBit                    0x080025f3   Thumb Code     6  stm32f10x_rcc.o(.text)
    TIM_DeInit                               0x0800261d   Thumb Code   424  stm32f10x_tim.o(.text)
    TIM_TimeBaseInit                         0x080027c5   Thumb Code   122  stm32f10x_tim.o(.text)
    TIM_OC1Init                              0x0800283f   Thumb Code   132  stm32f10x_tim.o(.text)
    TIM_OC2Init                              0x080028c3   Thumb Code   154  stm32f10x_tim.o(.text)
    TIM_OC3Init                              0x0800295d   Thumb Code   150  stm32f10x_tim.o(.text)
    TIM_OC4Init                              0x080029f3   Thumb Code   182  stm32f10x_tim.o(.text)
    TIM_SetIC4Prescaler                      0x08002aa9   Thumb Code    26  stm32f10x_tim.o(.text)
    TIM_SetIC3Prescaler                      0x08002b45   Thumb Code    18  stm32f10x_tim.o(.text)
    TIM_SetIC2Prescaler                      0x08002bd1   Thumb Code    26  stm32f10x_tim.o(.text)
    TIM_SetIC1Prescaler                      0x08002c6d   Thumb Code    18  stm32f10x_tim.o(.text)
    TIM_ICInit                               0x08002ceb   Thumb Code   150  stm32f10x_tim.o(.text)
    TIM_PWMIConfig                           0x08002d81   Thumb Code   124  stm32f10x_tim.o(.text)
    TIM_BDTRConfig                           0x08002dfd   Thumb Code    32  stm32f10x_tim.o(.text)
    TIM_TimeBaseStructInit                   0x08002e1d   Thumb Code    18  stm32f10x_tim.o(.text)
    TIM_OCStructInit                         0x08002e2f   Thumb Code    20  stm32f10x_tim.o(.text)
    TIM_ICStructInit                         0x08002e43   Thumb Code    18  stm32f10x_tim.o(.text)
    TIM_BDTRStructInit                       0x08002e55   Thumb Code    40  stm32f10x_tim.o(.text)
    TIM_Cmd                                  0x08002e7d   Thumb Code    24  stm32f10x_tim.o(.text)
    TIM_CtrlPWMOutputs                       0x08002e95   Thumb Code    30  stm32f10x_tim.o(.text)
    TIM_ITConfig                             0x08002eb3   Thumb Code    18  stm32f10x_tim.o(.text)
    TIM_GenerateEvent                        0x08002ec5   Thumb Code     4  stm32f10x_tim.o(.text)
    TIM_DMAConfig                            0x08002ec9   Thumb Code    10  stm32f10x_tim.o(.text)
    TIM_DMACmd                               0x08002ed3   Thumb Code    18  stm32f10x_tim.o(.text)
    TIM_InternalClockConfig                  0x08002ee5   Thumb Code    12  stm32f10x_tim.o(.text)
    TIM_SelectInputTrigger                   0x08002ef1   Thumb Code    18  stm32f10x_tim.o(.text)
    TIM_ITRxExternalClockConfig              0x08002f03   Thumb Code    24  stm32f10x_tim.o(.text)
    TIM_TIxExternalClockConfig               0x08002f1b   Thumb Code    62  stm32f10x_tim.o(.text)
    TIM_ETRConfig                            0x08002f59   Thumb Code    28  stm32f10x_tim.o(.text)
    TIM_ETRClockMode1Config                  0x08002f75   Thumb Code    54  stm32f10x_tim.o(.text)
    TIM_ETRClockMode2Config                  0x08002fab   Thumb Code    32  stm32f10x_tim.o(.text)
    TIM_PrescalerConfig                      0x08002fcb   Thumb Code     6  stm32f10x_tim.o(.text)
    TIM_CounterModeConfig                    0x08002fd1   Thumb Code    18  stm32f10x_tim.o(.text)
    TIM_EncoderInterfaceConfig               0x08002fe3   Thumb Code    66  stm32f10x_tim.o(.text)
    TIM_ForcedOC1Config                      0x08003025   Thumb Code    18  stm32f10x_tim.o(.text)
    TIM_ForcedOC2Config                      0x08003037   Thumb Code    26  stm32f10x_tim.o(.text)
    TIM_ForcedOC3Config                      0x08003051   Thumb Code    18  stm32f10x_tim.o(.text)
    TIM_ForcedOC4Config                      0x08003063   Thumb Code    26  stm32f10x_tim.o(.text)
    TIM_ARRPreloadConfig                     0x0800307d   Thumb Code    24  stm32f10x_tim.o(.text)
    TIM_SelectCOM                            0x08003095   Thumb Code    24  stm32f10x_tim.o(.text)
    TIM_SelectCCDMA                          0x080030ad   Thumb Code    24  stm32f10x_tim.o(.text)
    TIM_CCPreloadControl                     0x080030c5   Thumb Code    24  stm32f10x_tim.o(.text)
    TIM_OC1PreloadConfig                     0x080030dd   Thumb Code    18  stm32f10x_tim.o(.text)
    TIM_OC2PreloadConfig                     0x080030ef   Thumb Code    26  stm32f10x_tim.o(.text)
    TIM_OC3PreloadConfig                     0x08003109   Thumb Code    18  stm32f10x_tim.o(.text)
    TIM_OC4PreloadConfig                     0x0800311b   Thumb Code    26  stm32f10x_tim.o(.text)
    TIM_OC1FastConfig                        0x08003135   Thumb Code    18  stm32f10x_tim.o(.text)
    TIM_OC2FastConfig                        0x08003147   Thumb Code    26  stm32f10x_tim.o(.text)
    TIM_OC3FastConfig                        0x08003161   Thumb Code    18  stm32f10x_tim.o(.text)
    TIM_OC4FastConfig                        0x08003173   Thumb Code    26  stm32f10x_tim.o(.text)
    TIM_ClearOC1Ref                          0x0800318d   Thumb Code    18  stm32f10x_tim.o(.text)
    TIM_ClearOC2Ref                          0x0800319f   Thumb Code    24  stm32f10x_tim.o(.text)
    TIM_ClearOC3Ref                          0x080031b7   Thumb Code    18  stm32f10x_tim.o(.text)
    TIM_ClearOC4Ref                          0x080031c9   Thumb Code    24  stm32f10x_tim.o(.text)
    TIM_OC1PolarityConfig                    0x080031e1   Thumb Code    18  stm32f10x_tim.o(.text)
    TIM_OC1NPolarityConfig                   0x080031f3   Thumb Code    18  stm32f10x_tim.o(.text)
    TIM_OC2PolarityConfig                    0x08003205   Thumb Code    26  stm32f10x_tim.o(.text)
    TIM_OC2NPolarityConfig                   0x0800321f   Thumb Code    26  stm32f10x_tim.o(.text)
    TIM_OC3PolarityConfig                    0x08003239   Thumb Code    26  stm32f10x_tim.o(.text)
    TIM_OC3NPolarityConfig                   0x08003253   Thumb Code    26  stm32f10x_tim.o(.text)
    TIM_OC4PolarityConfig                    0x0800326d   Thumb Code    26  stm32f10x_tim.o(.text)
    TIM_CCxCmd                               0x08003287   Thumb Code    30  stm32f10x_tim.o(.text)
    TIM_CCxNCmd                              0x080032a5   Thumb Code    30  stm32f10x_tim.o(.text)
    TIM_SelectOCxM                           0x080032c3   Thumb Code    82  stm32f10x_tim.o(.text)
    TIM_UpdateDisableConfig                  0x08003315   Thumb Code    24  stm32f10x_tim.o(.text)
    TIM_UpdateRequestConfig                  0x0800332d   Thumb Code    24  stm32f10x_tim.o(.text)
    TIM_SelectHallSensor                     0x08003345   Thumb Code    24  stm32f10x_tim.o(.text)
    TIM_SelectOnePulseMode                   0x0800335d   Thumb Code    18  stm32f10x_tim.o(.text)
    TIM_SelectOutputTrigger                  0x0800336f   Thumb Code    18  stm32f10x_tim.o(.text)
    TIM_SelectSlaveMode                      0x08003381   Thumb Code    18  stm32f10x_tim.o(.text)
    TIM_SelectMasterSlaveMode                0x08003393   Thumb Code    18  stm32f10x_tim.o(.text)
    TIM_SetCounter                           0x080033a5   Thumb Code     4  stm32f10x_tim.o(.text)
    TIM_SetAutoreload                        0x080033a9   Thumb Code     4  stm32f10x_tim.o(.text)
    TIM_SetCompare1                          0x080033ad   Thumb Code     4  stm32f10x_tim.o(.text)
    TIM_SetCompare2                          0x080033b1   Thumb Code     4  stm32f10x_tim.o(.text)
    TIM_SetCompare3                          0x080033b5   Thumb Code     4  stm32f10x_tim.o(.text)
    TIM_SetCompare4                          0x080033b9   Thumb Code     6  stm32f10x_tim.o(.text)
    TIM_SetClockDivision                     0x080033bf   Thumb Code    18  stm32f10x_tim.o(.text)
    TIM_GetCapture1                          0x080033d1   Thumb Code     6  stm32f10x_tim.o(.text)
    TIM_GetCapture2                          0x080033d7   Thumb Code     6  stm32f10x_tim.o(.text)
    TIM_GetCapture3                          0x080033dd   Thumb Code     6  stm32f10x_tim.o(.text)
    TIM_GetCapture4                          0x080033e3   Thumb Code     8  stm32f10x_tim.o(.text)
    TIM_GetCounter                           0x080033eb   Thumb Code     6  stm32f10x_tim.o(.text)
    TIM_GetPrescaler                         0x080033f1   Thumb Code     6  stm32f10x_tim.o(.text)
    TIM_GetFlagStatus                        0x080033f7   Thumb Code    18  stm32f10x_tim.o(.text)
    TIM_ClearFlag                            0x08003409   Thumb Code     6  stm32f10x_tim.o(.text)
    TIM_GetITStatus                          0x0800340f   Thumb Code    34  stm32f10x_tim.o(.text)
    TIM_ClearITPendingBit                    0x08003431   Thumb Code     6  stm32f10x_tim.o(.text)
    USART_DeInit                             0x08003439   Thumb Code   134  stm32f10x_usart.o(.text)
    USART_Init                               0x080034bf   Thumb Code   210  stm32f10x_usart.o(.text)
    USART_StructInit                         0x08003591   Thumb Code    24  stm32f10x_usart.o(.text)
    USART_ClockInit                          0x080035a9   Thumb Code    34  stm32f10x_usart.o(.text)
    USART_ClockStructInit                    0x080035cb   Thumb Code    12  stm32f10x_usart.o(.text)
    USART_Cmd                                0x080035d7   Thumb Code    24  stm32f10x_usart.o(.text)
    USART_ITConfig                           0x080035ef   Thumb Code    74  stm32f10x_usart.o(.text)
    USART_DMACmd                             0x08003639   Thumb Code    18  stm32f10x_usart.o(.text)
    USART_SetAddress                         0x0800364b   Thumb Code    18  stm32f10x_usart.o(.text)
    USART_WakeUpConfig                       0x0800365d   Thumb Code    18  stm32f10x_usart.o(.text)
    USART_ReceiverWakeUpCmd                  0x0800366f   Thumb Code    24  stm32f10x_usart.o(.text)
    USART_LINBreakDetectLengthConfig         0x08003687   Thumb Code    18  stm32f10x_usart.o(.text)
    USART_LINCmd                             0x08003699   Thumb Code    24  stm32f10x_usart.o(.text)
    USART_SendData                           0x080036b1   Thumb Code     8  stm32f10x_usart.o(.text)
    USART_ReceiveData                        0x080036b9   Thumb Code    10  stm32f10x_usart.o(.text)
    USART_SendBreak                          0x080036c3   Thumb Code    10  stm32f10x_usart.o(.text)
    USART_SetGuardTime                       0x080036cd   Thumb Code    16  stm32f10x_usart.o(.text)
    USART_SetPrescaler                       0x080036dd   Thumb Code    16  stm32f10x_usart.o(.text)
    USART_SmartCardCmd                       0x080036ed   Thumb Code    24  stm32f10x_usart.o(.text)
    USART_SmartCardNACKCmd                   0x08003705   Thumb Code    24  stm32f10x_usart.o(.text)
    USART_HalfDuplexCmd                      0x0800371d   Thumb Code    24  stm32f10x_usart.o(.text)
    USART_OverSampling8Cmd                   0x08003735   Thumb Code    22  stm32f10x_usart.o(.text)
    USART_OneBitMethodCmd                    0x0800374b   Thumb Code    24  stm32f10x_usart.o(.text)
    USART_IrDAConfig                         0x08003763   Thumb Code    18  stm32f10x_usart.o(.text)
    USART_IrDACmd                            0x08003775   Thumb Code    24  stm32f10x_usart.o(.text)
    USART_GetFlagStatus                      0x0800378d   Thumb Code    26  stm32f10x_usart.o(.text)
    USART_ClearFlag                          0x080037a7   Thumb Code    18  stm32f10x_usart.o(.text)
    USART_GetITStatus                        0x080037b9   Thumb Code    84  stm32f10x_usart.o(.text)
    USART_ClearITPendingBit                  0x0800380d   Thumb Code    52  stm32f10x_usart.o(.text)
    __use_no_semihosting                     0x08003841   Thumb Code     2  use_no_semi_2.o(.text)
    __2printf                                0x08003845   Thumb Code    20  noretval__2printf.o(.text)
    __printf                                 0x0800385d   Thumb Code   104  __printf.o(.text)
    _printf_int_dec                          0x080038c5   Thumb Code   104  _printf_dec.o(.text)
    _printf_int_hex                          0x0800393d   Thumb Code    84  _printf_hex_int.o(.text)
    _printf_longlong_hex                     0x0800393d   Thumb Code     0  _printf_hex_int.o(.text)
    __use_two_region_memory                  0x08003995   Thumb Code     2  heapauxi.o(.text)
    __rt_heap_escrow$2region                 0x08003997   Thumb Code     2  heapauxi.o(.text)
    __rt_heap_expand$2region                 0x08003999   Thumb Code     2  heapauxi.o(.text)
    __I$use$semihosting                      0x0800399b   Thumb Code     0  use_no_semi.o(.text)
    __use_no_semihosting_swi                 0x0800399b   Thumb Code     2  use_no_semi.o(.text)
    _printf_int_common                       0x0800399d   Thumb Code   178  _printf_intcommon.o(.text)
    _printf_char_file                        0x08003a51   Thumb Code    32  _printf_char_file.o(.text)
    _printf_char_common                      0x08003a7f   Thumb Code    32  _printf_char_common.o(.text)
    ferror                                   0x08003aa5   Thumb Code     8  ferror.o(.text)
    __user_setup_stackheap                   0x08003aad   Thumb Code    74  sys_stackheap_outer.o(.text)
    exit                                     0x08003af7   Thumb Code    18  exit.o(.text)
    __user_libspace                          0x08003b09   Thumb Code     8  libspace.o(.text)
    __user_perproc_libspace                  0x08003b09   Thumb Code     0  libspace.o(.text)
    __user_perthread_libspace                0x08003b09   Thumb Code     0  libspace.o(.text)
    __fpl_dcmp_Inf                           0x08003b11   Thumb Code    24  dcmpi.o(x$fpl$dcmpinf)
    __aeabi_ddiv                             0x08003b29   Thumb Code     0  ddiv.o(x$fpl$ddiv)
    _ddiv                                    0x08003b29   Thumb Code   552  ddiv.o(x$fpl$ddiv)
    __aeabi_d2iz                             0x08003dd9   Thumb Code     0  dfix.o(x$fpl$dfix)
    _dfix                                    0x08003dd9   Thumb Code    94  dfix.o(x$fpl$dfix)
    __aeabi_d2uiz                            0x08003e39   Thumb Code     0  dfixu.o(x$fpl$dfixu)
    _dfixu                                   0x08003e39   Thumb Code    90  dfixu.o(x$fpl$dfixu)
    __aeabi_ui2d                             0x08003e93   Thumb Code     0  dflt_clz.o(x$fpl$dfltu)
    _dfltu                                   0x08003e93   Thumb Code    38  dflt_clz.o(x$fpl$dfltu)
    __aeabi_cdcmple                          0x08003eb9   Thumb Code     0  dleqf.o(x$fpl$dleqf)
    _dcmple                                  0x08003eb9   Thumb Code   120  dleqf.o(x$fpl$dleqf)
    __fpl_dcmple_InfNaN                      0x08003f1b   Thumb Code     0  dleqf.o(x$fpl$dleqf)
    __aeabi_dmul                             0x08003f31   Thumb Code     0  dmul.o(x$fpl$dmul)
    _dmul                                    0x08003f31   Thumb Code   332  dmul.o(x$fpl$dmul)
    __fpl_dnaninf                            0x08004085   Thumb Code   156  dnaninf.o(x$fpl$dnaninf)
    __fpl_dretinf                            0x08004121   Thumb Code    12  dretinf.o(x$fpl$dretinf)
    __aeabi_cdrcmple                         0x0800412d   Thumb Code     0  drleqf.o(x$fpl$drleqf)
    _drcmple                                 0x0800412d   Thumb Code   108  drleqf.o(x$fpl$drleqf)
    __aeabi_f2d                              0x08004199   Thumb Code     0  f2d.o(x$fpl$f2d)
    _f2d                                     0x08004199   Thumb Code    86  f2d.o(x$fpl$f2d)
    __aeabi_fadd                             0x080041f1   Thumb Code     0  faddsub_clz.o(x$fpl$fadd)
    _fadd                                    0x080041f1   Thumb Code   196  faddsub_clz.o(x$fpl$fadd)
    __aeabi_i2f                              0x080042b5   Thumb Code     0  fflt_clz.o(x$fpl$fflt)
    _fflt                                    0x080042b5   Thumb Code    48  fflt_clz.o(x$fpl$fflt)
    __aeabi_ui2f                             0x080042e5   Thumb Code     0  fflt_clz.o(x$fpl$ffltu)
    _ffltu                                   0x080042e5   Thumb Code    38  fflt_clz.o(x$fpl$ffltu)
    __fpl_fnaninf                            0x0800430b   Thumb Code   140  fnaninf.o(x$fpl$fnaninf)
    __fpl_fretinf                            0x08004397   Thumb Code    10  fretinf.o(x$fpl$fretinf)
    __aeabi_fsub                             0x080043a1   Thumb Code     0  faddsub_clz.o(x$fpl$fsub)
    _fsub                                    0x080043a1   Thumb Code   234  faddsub_clz.o(x$fpl$fsub)
    __I$use$fp                               0x0800448a   Number         0  usenofp.o(x$fpl$usenofp)
    Region$$Table$$Base                      0x080044b4   Number         0  anon$$obj.o(Region$$Table)
    Region$$Table$$Limit                     0x080044d4   Number         0  anon$$obj.o(Region$$Table)
    SystemCoreClock                          0x20000000   Data           4  system_stm32f10x.o(.data)
    AHBPrescTable                            0x20000004   Data          16  system_stm32f10x.o(.data)
    key_flag                                 0x20000014   Data           1  exti.o(.data)
    __stdout                                 0x20000018   Data           4  usart.o(.data)
    rx_cnt                                   0x2000001c   Data           1  usart.o(.data)
    mcu_data_ptr                             0x20000020   Data           4  main.o(.data)
    heart_beat_cnt                           0x20000024   Data           4  main.o(.data)
    new_recv_flag                            0x20000028   Data           4  main.o(.data)
    asr_id                                   0x2000002c   Data           1  main.o(.data)
    asr_new_recv_flag                        0x20000030   Data           4  main.o(.data)
    enable_power                             0x20000034   Data           1  main.o(.data)
    last_enable_power                        0x20000035   Data           1  main.o(.data)
    rx_data                                  0x20000050   Data         100  usart.o(.bss)
    cmd_data                                 0x200000b4   Data          12  main.o(.bss)
    mcu_data                                 0x200000c0   Data          16  main.o(.bss)
    __libspace_start                         0x200000d0   Data          96  libspace.o(.bss)
    __temporary_stack_top$libspace           0x20000130   Data           0  libspace.o(.bss)



==============================================================================

Memory Map of the image

  Image Entry point : 0x080000ed

  Load Region LR_IROM1 (Base: 0x08000000, Size: 0x00004524, Max: 0x00010000, ABSOLUTE)

    Execution Region ER_IROM1 (Base: 0x08000000, Size: 0x000044d4, Max: 0x00010000, ABSOLUTE)

    Base Addr    Size         Type   Attr      Idx    E Section Name        Object

    0x08000000   0x000000ec   Data   RO          431    RESET               startup_stm32f10x_md.o
    0x080000ec   0x00000008   Code   RO          772  * !!!main             c_w.l(__main.o)
    0x080000f4   0x00000034   Code   RO         1003    !!!scatter          c_w.l(__scatter.o)
    0x08000128   0x0000001a   Code   RO         1005    !!handler_copy      c_w.l(__scatter_copy.o)
    0x08000142   0x00000002   PAD
    0x08000144   0x0000001c   Code   RO         1007    !!handler_zi        c_w.l(__scatter_zi.o)
    0x08000160   0x00000000   Code   RO          769    .ARM.Collect$$_printf_percent$$00000000  c_w.l(_printf_percent.o)
    0x08000160   0x00000006   Code   RO          768    .ARM.Collect$$_printf_percent$$00000009  c_w.l(_printf_d.o)
    0x08000166   0x00000006   Code   RO          767    .ARM.Collect$$_printf_percent$$0000000C  c_w.l(_printf_x.o)
    0x0800016c   0x00000004   Code   RO          831    .ARM.Collect$$_printf_percent$$00000017  c_w.l(_printf_percent_end.o)
    0x08000170   0x00000002   Code   RO          877    .ARM.Collect$$libinit$$00000000  c_w.l(libinit.o)
    0x08000172   0x00000000   Code   RO          884    .ARM.Collect$$libinit$$00000002  c_w.l(libinit2.o)
    0x08000172   0x00000000   Code   RO          886    .ARM.Collect$$libinit$$00000004  c_w.l(libinit2.o)
    0x08000172   0x00000000   Code   RO          889    .ARM.Collect$$libinit$$0000000A  c_w.l(libinit2.o)
    0x08000172   0x00000000   Code   RO          891    .ARM.Collect$$libinit$$0000000C  c_w.l(libinit2.o)
    0x08000172   0x00000000   Code   RO          893    .ARM.Collect$$libinit$$0000000E  c_w.l(libinit2.o)
    0x08000172   0x00000000   Code   RO          896    .ARM.Collect$$libinit$$00000011  c_w.l(libinit2.o)
    0x08000172   0x00000000   Code   RO          898    .ARM.Collect$$libinit$$00000013  c_w.l(libinit2.o)
    0x08000172   0x00000000   Code   RO          900    .ARM.Collect$$libinit$$00000015  c_w.l(libinit2.o)
    0x08000172   0x00000000   Code   RO          902    .ARM.Collect$$libinit$$00000017  c_w.l(libinit2.o)
    0x08000172   0x00000000   Code   RO          904    .ARM.Collect$$libinit$$00000019  c_w.l(libinit2.o)
    0x08000172   0x00000000   Code   RO          906    .ARM.Collect$$libinit$$0000001B  c_w.l(libinit2.o)
    0x08000172   0x00000000   Code   RO          908    .ARM.Collect$$libinit$$0000001D  c_w.l(libinit2.o)
    0x08000172   0x00000000   Code   RO          910    .ARM.Collect$$libinit$$0000001F  c_w.l(libinit2.o)
    0x08000172   0x00000000   Code   RO          912    .ARM.Collect$$libinit$$00000021  c_w.l(libinit2.o)
    0x08000172   0x00000000   Code   RO          914    .ARM.Collect$$libinit$$00000023  c_w.l(libinit2.o)
    0x08000172   0x00000000   Code   RO          916    .ARM.Collect$$libinit$$00000025  c_w.l(libinit2.o)
    0x08000172   0x00000000   Code   RO          920    .ARM.Collect$$libinit$$0000002C  c_w.l(libinit2.o)
    0x08000172   0x00000000   Code   RO          922    .ARM.Collect$$libinit$$0000002E  c_w.l(libinit2.o)
    0x08000172   0x00000000   Code   RO          924    .ARM.Collect$$libinit$$00000030  c_w.l(libinit2.o)
    0x08000172   0x00000000   Code   RO          926    .ARM.Collect$$libinit$$00000032  c_w.l(libinit2.o)
    0x08000172   0x00000002   Code   RO          927    .ARM.Collect$$libinit$$00000033  c_w.l(libinit2.o)
    0x08000174   0x00000002   Code   RO          945    .ARM.Collect$$libshutdown$$00000000  c_w.l(libshutdown.o)
    0x08000176   0x00000000   Code   RO          955    .ARM.Collect$$libshutdown$$00000002  c_w.l(libshutdown2.o)
    0x08000176   0x00000000   Code   RO          957    .ARM.Collect$$libshutdown$$00000004  c_w.l(libshutdown2.o)
    0x08000176   0x00000000   Code   RO          960    .ARM.Collect$$libshutdown$$00000007  c_w.l(libshutdown2.o)
    0x08000176   0x00000000   Code   RO          963    .ARM.Collect$$libshutdown$$0000000A  c_w.l(libshutdown2.o)
    0x08000176   0x00000000   Code   RO          965    .ARM.Collect$$libshutdown$$0000000C  c_w.l(libshutdown2.o)
    0x08000176   0x00000000   Code   RO          968    .ARM.Collect$$libshutdown$$0000000F  c_w.l(libshutdown2.o)
    0x08000176   0x00000002   Code   RO          969    .ARM.Collect$$libshutdown$$00000010  c_w.l(libshutdown2.o)
    0x08000178   0x00000000   Code   RO          826    .ARM.Collect$$rtentry$$00000000  c_w.l(__rtentry.o)
    0x08000178   0x00000000   Code   RO          844    .ARM.Collect$$rtentry$$00000002  c_w.l(__rtentry2.o)
    0x08000178   0x00000006   Code   RO          856    .ARM.Collect$$rtentry$$00000004  c_w.l(__rtentry4.o)
    0x0800017e   0x00000000   Code   RO          846    .ARM.Collect$$rtentry$$00000009  c_w.l(__rtentry2.o)
    0x0800017e   0x00000004   Code   RO          847    .ARM.Collect$$rtentry$$0000000A  c_w.l(__rtentry2.o)
    0x08000182   0x00000000   Code   RO          849    .ARM.Collect$$rtentry$$0000000C  c_w.l(__rtentry2.o)
    0x08000182   0x00000008   Code   RO          850    .ARM.Collect$$rtentry$$0000000D  c_w.l(__rtentry2.o)
    0x0800018a   0x00000002   Code   RO          881    .ARM.Collect$$rtexit$$00000000  c_w.l(rtexit.o)
    0x0800018c   0x00000000   Code   RO          929    .ARM.Collect$$rtexit$$00000002  c_w.l(rtexit2.o)
    0x0800018c   0x00000004   Code   RO          930    .ARM.Collect$$rtexit$$00000003  c_w.l(rtexit2.o)
    0x08000190   0x00000006   Code   RO          931    .ARM.Collect$$rtexit$$00000004  c_w.l(rtexit2.o)
    0x08000196   0x00000018   Code   RO            1    .text               stm32f10x_it.o
    0x080001ae   0x00000002   PAD
    0x080001b0   0x00000244   Code   RO          104    .text               system_stm32f10x.o
    0x080003f4   0x000000a4   Code   RO          122    .text               delay.o
    0x08000498   0x00000030   Code   RO          137    .text               led.o
    0x080004c8   0x00000080   Code   RO          170    .text               exti.o
    0x08000548   0x000002ac   Code   RO          195    .text               usart.o
    0x080007f4   0x00000218   Code   RO          222    .text               pwm.o
    0x08000a0c   0x00000188   Code   RO          237    .text               encoder.o
    0x08000b94   0x00000488   Code   RO          252    .text               main.o
    0x0800101c   0x000000d0   Code   RO          297    .text               gpio.o
    0x080010ec   0x000000d4   Code   RO          343    .text               usart2.o
    0x080011c0   0x00000118   Code   RO          361    .text               adc.o
    0x080012d8   0x00000040   Code   RO          432    .text               startup_stm32f10x_md.o
    0x08001318   0x000000dc   Code   RO          436    .text               misc.o
    0x080013f4   0x0000044e   Code   RO          448    .text               stm32f10x_adc.o
    0x08001842   0x00000002   PAD
    0x08001844   0x0000011c   Code   RO          544    .text               stm32f10x_exti.o
    0x08001960   0x000005bc   Code   RO          556    .text               stm32f10x_flash.o
    0x08001f1c   0x0000035c   Code   RO          580    .text               stm32f10x_gpio.o
    0x08002278   0x000003a4   Code   RO          628    .text               stm32f10x_rcc.o
    0x0800261c   0x00000e1a   Code   RO          678    .text               stm32f10x_tim.o
    0x08003436   0x00000002   PAD
    0x08003438   0x00000408   Code   RO          690    .text               stm32f10x_usart.o
    0x08003840   0x00000002   Code   RO          716    .text               c_w.l(use_no_semi_2.o)
    0x08003842   0x00000002   PAD
    0x08003844   0x00000018   Code   RO          720    .text               c_w.l(noretval__2printf.o)
    0x0800385c   0x00000068   Code   RO          722    .text               c_w.l(__printf.o)
    0x080038c4   0x00000078   Code   RO          724    .text               c_w.l(_printf_dec.o)
    0x0800393c   0x00000058   Code   RO          729    .text               c_w.l(_printf_hex_int.o)
    0x08003994   0x00000006   Code   RO          770    .text               c_w.l(heapauxi.o)
    0x0800399a   0x00000002   Code   RO          824    .text               c_w.l(use_no_semi.o)
    0x0800399c   0x000000b2   Code   RO          827    .text               c_w.l(_printf_intcommon.o)
    0x08003a4e   0x00000002   PAD
    0x08003a50   0x00000024   Code   RO          829    .text               c_w.l(_printf_char_file.o)
    0x08003a74   0x00000030   Code   RO          858    .text               c_w.l(_printf_char_common.o)
    0x08003aa4   0x00000008   Code   RO          860    .text               c_w.l(ferror.o)
    0x08003aac   0x0000004a   Code   RO          866    .text               c_w.l(sys_stackheap_outer.o)
    0x08003af6   0x00000012   Code   RO          870    .text               c_w.l(exit.o)
    0x08003b08   0x00000008   Code   RO          878    .text               c_w.l(libspace.o)
    0x08003b10   0x00000018   Code   RO          864    x$fpl$dcmpinf       fz_ws.l(dcmpi.o)
    0x08003b28   0x000002b0   Code   RO          783    x$fpl$ddiv          fz_ws.l(ddiv.o)
    0x08003dd8   0x0000005e   Code   RO          786    x$fpl$dfix          fz_ws.l(dfix.o)
    0x08003e36   0x00000002   PAD
    0x08003e38   0x0000005a   Code   RO          790    x$fpl$dfixu         fz_ws.l(dfixu.o)
    0x08003e92   0x00000026   Code   RO          794    x$fpl$dfltu         fz_ws.l(dflt_clz.o)
    0x08003eb8   0x00000078   Code   RO          832    x$fpl$dleqf         fz_ws.l(dleqf.o)
    0x08003f30   0x00000154   Code   RO          800    x$fpl$dmul          fz_ws.l(dmul.o)
    0x08004084   0x0000009c   Code   RO          834    x$fpl$dnaninf       fz_ws.l(dnaninf.o)
    0x08004120   0x0000000c   Code   RO          836    x$fpl$dretinf       fz_ws.l(dretinf.o)
    0x0800412c   0x0000006c   Code   RO          802    x$fpl$drleqf        fz_ws.l(drleqf.o)
    0x08004198   0x00000056   Code   RO          804    x$fpl$f2d           fz_ws.l(f2d.o)
    0x080041ee   0x00000002   PAD
    0x080041f0   0x000000c4   Code   RO          806    x$fpl$fadd          fz_ws.l(faddsub_clz.o)
    0x080042b4   0x00000030   Code   RO          817    x$fpl$fflt          fz_ws.l(fflt_clz.o)
    0x080042e4   0x00000026   Code   RO          816    x$fpl$ffltu         fz_ws.l(fflt_clz.o)
    0x0800430a   0x0000008c   Code   RO          838    x$fpl$fnaninf       fz_ws.l(fnaninf.o)
    0x08004396   0x0000000a   Code   RO          840    x$fpl$fretinf       fz_ws.l(fretinf.o)
    0x080043a0   0x000000ea   Code   RO          808    x$fpl$fsub          fz_ws.l(faddsub_clz.o)
    0x0800448a   0x00000000   Code   RO          842    x$fpl$usenofp       fz_ws.l(usenofp.o)
    0x0800448a   0x00000028   Data   RO          730    .constdata          c_w.l(_printf_hex_int.o)
    0x080044b2   0x00000002   PAD
    0x080044b4   0x00000020   Data   RO         1001    Region$$Table       anon$$obj.o


    Execution Region RW_IRAM1 (Base: 0x20000000, Size: 0x00000730, Max: 0x00005000, ABSOLUTE)

    Base Addr    Size         Type   Attr      Idx    E Section Name        Object

    0x20000000   0x00000014   Data   RW          105    .data               system_stm32f10x.o
    0x20000014   0x00000001   Data   RW          171    .data               exti.o
    0x20000015   0x00000003   PAD
    0x20000018   0x00000008   Data   RW          197    .data               usart.o
    0x20000020   0x0000001a   Data   RW          254    .data               main.o
    0x2000003a   0x00000001   Data   RW          344    .data               usart2.o
    0x2000003b   0x00000014   Data   RW          629    .data               stm32f10x_rcc.o
    0x2000004f   0x00000001   PAD
    0x20000050   0x00000064   Zero   RW          196    .bss                usart.o
    0x200000b4   0x0000001c   Zero   RW          253    .bss                main.o
    0x200000d0   0x00000060   Zero   RW          879    .bss                c_w.l(libspace.o)
    0x20000130   0x00000200   Zero   RW          430    HEAP                startup_stm32f10x_md.o
    0x20000330   0x00000400   Zero   RW          429    STACK               startup_stm32f10x_md.o


==============================================================================

Image component sizes


      Code (inc. data)   RO Data    RW Data    ZI Data      Debug   Object Name

       280         22          0          0          0       1062   adc.o
         0          0          0          0          0         32   core_cm3.o
       164          0          0          0          0        980   delay.o
       392          8          0          0          0       1658   encoder.o
       128          8          0          1          0       1903   exti.o
       208         12          0          0          0        788   gpio.o
        48          4          0          0          0        543   led.o
      1160        264          0         26         28      17734   main.o
       220         22          0          0          0       1945   misc.o
       536         16          0          0          0       1550   pwm.o
        64         26        236          0       1536        852   startup_stm32f10x_md.o
      1102         26          0          0          0      11185   stm32f10x_adc.o
       284         10          0          0          0       2403   stm32f10x_exti.o
      1468         34          0          0          0       8350   stm32f10x_flash.o
       860         38          0          0          0       5877   stm32f10x_gpio.o
        24          0          0          0          0     270874   stm32f10x_it.o
       932         36          0         20          0       9132   stm32f10x_rcc.o
      3610         88          0          0          0      22988   stm32f10x_tim.o
      1032         22          0          0          0       8604   stm32f10x_usart.o
       580         36          0         20          0       2212   system_stm32f10x.o
       684        178          0          8        100       4038   usart.o
       212         20          0          1          0        995   usart2.o

    ----------------------------------------------------------------------
     13994        870        268         80       1664     375705   Object Totals
         0          0         32          0          0          0   (incl. Generated)
         6          0          0          4          0          0   (incl. Padding)

    ----------------------------------------------------------------------

      Code (inc. data)   RO Data    RW Data    ZI Data      Debug   Library Member Name

         8          0          0          0          0         68   __main.o
       104          0          0          0          0         84   __printf.o
         0          0          0          0          0          0   __rtentry.o
        12          0          0          0          0          0   __rtentry2.o
         6          0          0          0          0          0   __rtentry4.o
        52          8          0          0          0          0   __scatter.o
        26          0          0          0          0          0   __scatter_copy.o
        28          0          0          0          0          0   __scatter_zi.o
        48          6          0          0          0         96   _printf_char_common.o
        36          4          0          0          0         80   _printf_char_file.o
         6          0          0          0          0          0   _printf_d.o
       120         16          0          0          0         92   _printf_dec.o
        88          4         40          0          0         88   _printf_hex_int.o
       178          0          0          0          0         88   _printf_intcommon.o
         0          0          0          0          0          0   _printf_percent.o
         4          0          0          0          0          0   _printf_percent_end.o
         6          0          0          0          0          0   _printf_x.o
        18          0          0          0          0         80   exit.o
         8          0          0          0          0         68   ferror.o
         6          0          0          0          0        152   heapauxi.o
         2          0          0          0          0          0   libinit.o
         2          0          0          0          0          0   libinit2.o
         2          0          0          0          0          0   libshutdown.o
         2          0          0          0          0          0   libshutdown2.o
         8          4          0          0         96         68   libspace.o
        24          4          0          0          0         84   noretval__2printf.o
         2          0          0          0          0          0   rtexit.o
        10          0          0          0          0          0   rtexit2.o
        74          0          0          0          0         80   sys_stackheap_outer.o
         2          0          0          0          0         68   use_no_semi.o
         2          0          0          0          0         68   use_no_semi_2.o
        24          0          0          0          0         68   dcmpi.o
       688        140          0          0          0        208   ddiv.o
        94          4          0          0          0         92   dfix.o
        90          4          0          0          0         92   dfixu.o
        38          0          0          0          0         68   dflt_clz.o
       120          4          0          0          0         92   dleqf.o
       340         12          0          0          0        104   dmul.o
       156          4          0          0          0         92   dnaninf.o
        12          0          0          0          0         68   dretinf.o
       108          0          0          0          0         80   drleqf.o
        86          4          0          0          0         84   f2d.o
       430          8          0          0          0        168   faddsub_clz.o
        86          0          0          0          0        136   fflt_clz.o
       140          4          0          0          0         84   fnaninf.o
        10          0          0          0          0         68   fretinf.o
         0          0          0          0          0          0   usenofp.o

    ----------------------------------------------------------------------
      3316        230         42          0         96       2768   Library Totals
        10          0          2          0          0          0   (incl. Padding)

    ----------------------------------------------------------------------

      Code (inc. data)   RO Data    RW Data    ZI Data      Debug   Library Name

       884         46         40          0         96       1264   c_w.l
      2422        184          0          0          0       1504   fz_ws.l

    ----------------------------------------------------------------------
      3316        230         42          0         96       2768   Library Totals

    ----------------------------------------------------------------------

==============================================================================


      Code (inc. data)   RO Data    RW Data    ZI Data      Debug   

     17310       1100        310         80       1760     375089   Grand Totals
     17310       1100        310         80       1760     375089   ELF Image Totals
     17310       1100        310         80          0          0   ROM Totals

==============================================================================

    Total RO  Size (Code + RO Data)                17620 (  17.21kB)
    Total RW  Size (RW Data + ZI Data)              1840 (   1.80kB)
    Total ROM Size (Code + RO Data + RW Data)      17700 (  17.29kB)

==============================================================================

